:020000041000EA
:1000000000B5324B212058609868022188439860DF
:10001000D860186158612E4B002199600221596106
:100020000121F02299502B49196001219960352056
:1000300000F044F80222904214D00621196600F024
:1000400034F8196E01211966002018661A6600F04E
:100050002CF8196E196E196E052000F02FF8012189
:100060000842F9D1002199601B49196000215960AB
:100070001A491B48016001219960EB211966A021F2
:10008000196600F012F800219960164914480160C1
:100090000121996001BC002800D000471248134993
:1000A000086003C880F30888084703B5996A0420EC
:1000B0000142FBD001200142F8D103BD02B5186610
:1000C0001866FFF7F2FF186E186E02BD00000240BE
:1000D000000000180000070000035F00212200005C
:1000E000F4000018222000A00001001008ED00E03C
:1000F00000000000000000000000000074B24E7A12
:1001000000200420F7010010C3010010C5010010F9
:10011000C1010010C1010010C1010010C101001097
:10012000C1010010C1010010C1010010C701001081
:10013000C1010010C1010010C9010010CB01001065
:10014000CD010010CD010010CD010010CD01001037
:10015000CD010010CD010010CD010010CD01001027
:10016000CD010010CD010010CD010010CD01001017
:10017000CD010010CD010010CD010010CD01001007
:10018000CD010010CD010010CD010010CD010010F7
:10019000CD010010CD010010CD010010CD010010E7
:1001A000CD010010CD010010CD010010CD010010D7
:1001B000CD010010CD010010CD010010CD010010C7
:1001C00000BE00BE00BE00BE00BE00BE00F04BF888
:1001D000103800BEF2EB8871F8C800102CC900106E
:1001E0003402001090A31AE700202149086006C8D5
:1001F00081F3088810471F48006800282FD10DA4FC
:100200000ECC002902D000F012F8F9E71A491B4A77
:10021000002000E001C19142FCD1194988471949E9
:1002200088471949884700BEFDE701C901C29A42C3
:10023000FBD370472CC90010C000002054050020DB
:10024000C0CD00100000042000000420C0CD00102C
:1002500000100420001004200000000070470B482C
:1002600005F06CFD0047EFF30580C0B27047000059
:1002700008ED00E0000000D05805002050210020CB
:100280003D4600104D030010F94500105756000080
:1002900006005250ABB3605360C0001006005250CD
:1002A000861C030270C00010060052505422A29D0A
:1002B00080C0001005005250DE65F468C0CD00100B
:1002C000F8B5C04606480749091A8B10C90FC91866
:1002D00010B5491003D0044B002B00D0984710BD37
:1002E000540500205405002000000000054B10B507
:1002F000002B03D00449054800E000BFFFF7E2FFF0
:1003000010BDC04600000000181E002030AB0010D9
:10031000F0B5C64600B584B004000E0017001D00FD
:1003200003F0D8FA8046E117FA2292000023200059
:1003300006F0D0FF02000B000295019700964046A0
:1003400003F010FC04B080BCB846F0BD10B58CB012
:10035000FA20400003F0FCFC07F0ECFA01F00AF888
:1003600001F056F901F032F901F0F0FB01F068FDFF
:1003700001F0DEFD0D4906AB00229620FFF7C8FF15
:100380000B496B4600226420FFF7C2FF094C230093
:10039000012208210E2002F0C9FA230001220821BF
:1003A0000F2002F0C3FA00F09FFFFEE7851E001049
:1003B0007D170010B5150010F0B5154B18685C6876
:1003C000144BE100091B8A008101091A8D005219A2
:1003D0009B185B69642B00D0F0BD0E4BE100091B3C
:1003E0008A0052199B189B69642BF5D1094DE100D5
:1003F0000A1B93008201171ABE009B19EB18064EC8
:1004000036685E611D00054B1B68AB61E4E7C046C2
:10041000100C0020E40F0020200400202404002001
:1004200010B5084B1B68132B08D00133054A136025
:10043000054ADB009850D218516010BD034807F000
:100440003BFAFAE728040020000D002030AB001032
:1004500010B50400094B1B685A1C0BD0591E074AE3
:1004600011609A1E064BD2009B18020003CB03C2F8
:10047000200010BD034807F01FFAF9E72804002008
:10048000000D002040AB001010B50400074B1A68A7
:10049000531C07D0064BD2009B18020003CB03C2AB
:1004A000200010BD034807F039FAF9E728040020BE
:1004B000000D002040AB001010B50C4B1B6800E095
:1004C000013B002B0BDB0A4ADC00A2588242F7D129
:1004D000074A121952688A42F2D1012300E0002330
:1004E000002B00D010BDFFF79BFFFBE72804002086
:1004F000000D002010B50C00474906F05FFF0028F2
:1005000044D0022C33D012D8002C21D0012C2DD174
:10051000424B18685968424ACB005B1A9B00810124
:10052000091A89005B18D2180123D3601EE0032C3E
:100530001CD13A4B18685968394ACB005B1A9B00AA
:100540008101091A89005B18D218012313610DE09B
:10055000324B18685968324ACB005B1A9B00810104
:10056000091A89005B18D2180123536010BD2B4B68
:10057000186859682A4ACB005B1A9B008101091A46
:1005800089005B18D21801239360EFE7022C33D067
:1005900012D8002C21D0012CE8D1204B18685968C2
:1005A0001F4ACB005B1A9B008101091A89005B1866
:1005B000D2180023D360D9E7032CD7D1174B186882
:1005C0005968174ACB005B1A9B008101091A890000
:1005D0005B18D21800231361C8E7104B18685968DC
:1005E0000F4ACB005B1A9B008101091A89005B1836
:1005F000D21800235360B9E7084B18685968084AB5
:10060000CB005B1A9B008101091A89005B18D21884
:1006100000239360AAE7C04600005841100C002058
:10062000E40F002010B5016042600376014807F036
:1006300075F910BD50AB0010F0B5C64600B54E4B75
:100640001B7E022B00D173E024D8002B49D0012B54
:100650006BD1494B1E685F68F800C11B8A00B1016D
:100660008D1BAC009046A04444460834434D6419A9
:10067000221D9A60DC604246521904321A614246D9
:10068000103252195A6102229A7600225A760332A7
:10069000DA764AE0032B48D1374A15685668F000ED
:1006A000811B8B00A9014F1BBC001B191F001037B9
:1006B000324C3F1997601F190437D76008331B1954
:1006C0001361801B8300491B88001B1808331B190A
:1006D000043353610023937602335376013BD37680
:1006E00023E0254A16685768F800C11B8B00B1014A
:1006F0008D1BAC001B19214D5C19043494601C0047
:10070000083464190434D46010335B191361C01BBE
:100710008300891B88001B1808335B195361012370
:10072000937602335376013BD37680BCB846F0BD56
:10073000114B1D685F68FE00F11B8A00A801441B75
:10074000A1005218110008310C4C0919996010329F
:100750001219DA6004311961F61BB200451BA800BA
:100760001218121904325A6103229A76023A5A7602
:100770000022DA76D9E7C046100C0020E40F0020F2
:10078000F0B589B0022853D01CD800283AD00128EF
:1007900015D1344B18685968013101AD324BCA008C
:1007A000521A92008401241AA40012199B182A00DC
:1007B000D0CBD0C270CB70C21B6813601CE000218C
:1007C000080019E0032815D1264B1868596801392B
:1007D00001AD254BCA00521A92008401241AA400CC
:1007E00012199B182A00D0CBD0C270CB70C21B68E4
:1007F000136001E00021002001AB1B78DB072DD541
:1008000009B0F0BD174B18680138596801AD164B97
:10081000CA00521A92008401241AA40012199B18CB
:100820002A00D0CBD0C270CB70C21B681360E3E744
:100830000C4B18680130596801AD0B4BCA00521AB5
:1008400092008401241AA40012199B182A00D0CB0C
:10085000D0C270CB70C21B681360CDE7FFF72CFECF
:10086000CEE7C046100C0020E40F002010B50C4A63
:10087000136852685C1E844209D00133834208D059
:10088000531C8B4207D0013A8A4206D010BD00208B
:10089000FCE70220FAE70120F8E70320F6E7C0466C
:1008A000100C002002280AD005D8002809D0012801
:1008B00000D1002070470328FCD10220FAE7012074
:1008C000F8E70320F6E702280AD005D8002809D067
:1008D000012800D1022070470328FCD10020FAE74C
:1008E0000320F8E70120F6E702280AD005D80028FF
:1008F00009D0012800D1032070470328FCD1012032
:10090000FAE70020F8E70220F6E70000F0B5C64657
:1009100000B510210A2001F033F9051C11210B202C
:1009200001F02EF9804613210D2001F029F9071C52
:1009300012210C2001F024F9061C291C622000F071
:1009400041FD0E4C217E281CFFF7D4FD207EFFF7D1
:10095000BAFF01004046FFF7CDFD207EFFF7A2FF62
:100960000100381CFFF7C6FD207EFFF7BDFF010028
:10097000301CFFF7BFFD80BCB846F0BD100C002056
:1009800070B5244B18685C682349E200121B930081
:100990008201121A95005B195B5CDB0700D570BD04
:1009A0000A00E100091B8B005B19995C01200143DF
:1009B00099541A4A136801331360FFF7A7FFFFF732
:1009C0003BFE144B5B691B68012B13D0114B1B6959
:1009D0001B68012B13D00F4BDB681B68012B13D056
:1009E0000C4B9B681B68012BD9D10A4B187EFFF773
:1009F000C7FED4E7074BD87EFFF7C2FEE6E7054BFC
:100A0000587EFFF7BDFEE6E7024B987EFFF7B8FE83
:100A1000E6E7C046100C0020E40F0020141E002062
:100A2000F8B504000E001700234B1D7E85420ED042
:100A3000FFF75AFF854214D02800FFF744FFA04279
:100A400019D02800FFF72EFFA04224D0F8BD1B4884
:100A500000F0A0FF1848037E3A003100FFF7E2FDE6
:100A6000F4E7164800F0DAFF1348037E3A0031003D
:100A7000FFF7D8FDEAE700F067FF104800F08AFFB3
:100A80000D4C207EFFF71FFF03003A0031002000CD
:100A9000FFF7C8FDDAE700F031FF084800F07AFF01
:100AA000054C207EFFF7FEFE03003A0031002000D7
:100AB000FFF7B8FDCAE7C046100C002000009041C7
:100AC00070B50C4B1D680C4B1E680C49F3009A1B4B
:100AD0009200A801441BA40012198A185469956950
:100AE00029002000FFF7C2FE2A002100FFF798FF2F
:100AF00070BDC0462004002024040020E40F002024
:100B000030B593B05A4A14685A490C6051685A4A31
:100B10001160013C02A8FFF7B7FC029B9C421CD06D
:100B2000544B1C68013406A8FFF7AEFC069B9C42A0
:100B300034D00AA8FFF7A8FC0A9A4E4B1B689A42C9
:100B40004DD00EA8FFF7A0FC0E9A4A4B1B689A42A4
:100B500069D0FFF7B5FF13B030BD04A8FFF794FCD0
:100B6000059B454A12689342DAD1424B1968434BC0
:100B7000D400A41AA0008C01641AA50040191B1807
:100B80005B68012B02D0FFF79BFFE4E701390020EF
:100B9000FFF746FF6846FFF75BFCDCE708A8FFF7B6
:100BA00073FC099B344A12689342C2D1314B1968D5
:100BB000324BD400A41AA0008C01641AA50040197D
:100BC0001B189B68012B02D0FFF77AFFC3E70131A6
:100BD0000220FFF725FF6846FFF73AFCBBE7264BEC
:100BE0001C6801340CA8FFF74FFC0D9B9C42A8D158
:100BF000204B1968204B1A68204BD400A41AA0007F
:100C00008C01641AA50040191B18DB68012B02D067
:100C1000FFF756FF9FE701320120FFF701FF68460B
:100C2000FFF716FC97E7144B1C68013C10A8FFF770
:100C30002BFC119B9C4200D08BE70E4B19680E4B8E
:100C40001A680E4BD400A41AA0008C01641AA500E7
:100C500040191B181B69012B02D0FFF731FF7AE7FF
:100C6000013A0320FFF7DCFE6846FFF7F1FB72E76D
:100C7000100C00202004002024040020E40F002099
:100C8000F0B5DE4657464E464546E0B5324B1B684A
:100C90009A46013B5A1C12DB5A1C0ED02E4A52684F
:100CA0002E48D100891A8A009901C91A8C0012199C
:100CB000125CD20701D5013BECE701339C46264B81
:100CC0005B689846013B5A1C12DB5A1C0ED0234924
:100CD000D800C01A8200504680015446001B840090
:100CE0001219525CD20701D5013BECE701339B4658
:100CF00000251EE063465F195B465E18184BCA006C
:100D0000521A94008C226A43A418144AF000861BDD
:100D1000B000BE01F71BBE0080191B19121851CA82
:100D200051C351CA51C312681A6001310429E1DD6F
:100D30000135032D01DC0021F8E7074A53466146DF
:100D40005E1A1660434659465F1A5760F0BCBB46B0
:100D5000B246A946A046F0BD100C0020E40F0020CA
:100D6000B40D0020F0B5DE4657464E464546E0B588
:100D70008046524A00231360514A1360514A13605F
:100D8000514A1360514A1370514A136000240EE017
:100D9000504AA3001B195B001B19D218002555549B
:100DA0004D4AD3185D5401310A29F1DD0134082C74
:100DB00001DC0021F8E7002206E0484BD1005D1875
:100DC00000246C60CC500132592AF6DD00239B468A
:100DD00069E00133042B63DC5A465400661C5D0055
:100DE0006A1C94463B495A46D20012195200121905
:100DF0008A18012082465055A81C57461754A21C39
:100E0000914692004A4452004A44891852464F552E
:100E10000F548B3259464A434244D900C91A8900BB
:100E20005118496800290BD12A49A700BA46A244A3
:100E300057467F00BA465444091901246746CC55E9
:100E4000DC00E41AA4001419A168002909D1214981
:100E50004C46A4004C4464004C44091901246746E4
:100E6000CC55D900C91A89005118C968002907D181
:100E70001849B400A4196400A419091901244C5597
:100E8000D900C91A890052181269002AA1D1114942
:100E9000B200921952009219891801220A5498E757
:100EA00001239C46E3445B46032B01DC002391E7CE
:100EB000F0BCBB46B246A946A046F0BD300C0020AF
:100EC0002C0C0020FC0C0020F80C002048210020F5
:100ED000D40A0020AC1D0020C8200020DC1A00200D
:100EE00010B540000130074C206049000131064830
:100EF00001605200013205490A605B000133044A77
:100F0000136010BD300C00202C0C0020FC0C0020C5
:100F1000F80C002010B5082A0FD80A2B0FD894001F
:100F2000A4186400A2188018C05C012809D0891890
:100F3000CB5C002B07D1012000E0002010BD002079
:100F4000FCE70020FAE70020F8E70000F8B5CE46FD
:100F5000474680B580460E0014001D003F4B1B68BD
:100F6000934239D0A200121952001219B21801236B
:100F70005355631E99462B004A4631004046FFF701
:100F8000C9FF002840D1002F09D1631C99462B00CE
:100F90004A4631004046FFF7BDFF00283CD1002FF4
:100FA00008D16B1E9946220031004046FFF7B2FF80
:100FB000002839D1002F08D16B1C9946220031003E
:100FC0004046FFF7A7FF002836D1002F3CD138005C
:100FD000C0BCB946B046F8BD214B1B68AB42C1D17D
:100FE00020490A68204BD000C4501B185D600132B4
:100FF0000A60A3001B195B001B19F31801225A5544
:101000001A4B1A700127E2E72B004A46310040468E
:10101000FFF79CFF0700B6E72B004A463100404629
:10102000FFF794FF0700BAE74B4622003100404625
:10103000FFF78CFF0700BDE74B462200310040461A
:10104000FFF784FF0700C0E706490A68064BD00097
:10105000C4501B185D6001320A60B8E7FC0C002028
:10106000F80C0020D40A0020DC1A002048210020BF
:10107000F8B50E001500002800D1D5E06C4806F048
:101080004DFC691E6B4806F049FC002410E06A4BD9
:10109000EB18DB00F3181A685968684806F03EFC44
:1010A000674B1A68674B1968674806F037FC0134CC
:1010B000AC4200DBBBE0002CE9D02B1B5E4A981849
:1010C000C00030180168DB00F3181A68571CB942D9
:1010D0001FD0013A914243D042685B68591C8A4252
:1010E00065D0013B9A42E2D1584806F017FC584BB4
:1010F0001B7E002B00D181E0022B00D184E0032B6A
:1011000000D187E0012B00D188E0514B03221A76F1
:10111000CDE7504806F002FC4D4B1B7E002B09D05A
:10112000022B0DD0032B0FD0012B13D0484B0222E2
:101130001A76BCE700F0BCFB474800F02BFCF5E753
:10114000454800F027FCF1E700F0D8FB424800F0EA
:1011500021FCEBE700F0F8FB3F4800F01BFCE5E763
:101160003E4806F0DBFB3A4B1B7E002B09D0022BDE
:101170000BD0032B0FD0012B13D0354B00221A7646
:1011800095E7354800F006FCF7E700F091FB3248A0
:1011900000F000FCF1E700F0D7FB2F4800F0FAFB6D
:1011A000EBE700F0ABFB2C4800F0F4FBE5E72C4844
:1011B00006F0B4FB264B1B7E002B09D0022B0DD072
:1011C000032B11D0012B15D0214B01221A766EE78B
:1011D00000F0BAFB204800F0DDFBF5E700F08EFBE5
:1011E0001D4800F0D7FBEFE700F062FB1A4800F063
:1011F000D1FBE9E7184800F0CDFBE5E700F07EFB06
:10120000154800F0C7FB80E700F09EFB124800F095
:10121000C1FB7AE7104800F0BDFB76E700F048FB21
:101220000D4800F0B7FB70E70E4806F077FBF8BDFD
:101230005CAB00106CAB0010FFFFFF1F80AB001019
:10124000FC0C0020F80C0020A0AB0010D4AB001068
:10125000100C0020C0AB001000005841C8AB0010BB
:10126000CCAB0010DCAB001010B5134B1B78002B7F
:101270001ED0124B1B78124A12781248016840683F
:10128000FFF72EFE1048FFF76DFD104B1B68104A4C
:10129000126810491048FFF759FE104B1A681049A0
:1012A000104B1878FFF7E4FE034B00221A7010BDB4
:1012B00000F0E0F8FBE7C046472100204E21002067
:1012C0004F210020100C0020B40D0020F80C00204D
:1012D000FC0C0020C8200020AC1D0020D40A0020F7
:1012E000DC1A00204821002070B500250FE01C4BBF
:1012F000D000801A8100A801401B840009195B18E6
:101300006421596199610132082AF0DD0135062D09
:1013100001DC0022F8E71348002304220321FFF731
:1013200081F905E0FFF7ECFBFFF746F801F06EFAF4
:10133000FFF726FB0C4B1B68132BF3DD142BF7D1A7
:10134000FFF79EFC0948FFF70DFD002405E0084863
:1013500000F062F80134FFF787FF002CF7D0FAE7BE
:10136000E40F0020100C0020141E0020B40D0020FB
:10137000AC1D002010B5E1210902064803F0FAF87F
:101380000221042001F046FA0221052001F042FA70
:1013900010BDC0460080034082B001AA1070517099
:1013A000002108E0064B9B699B06FBD41078044B98
:1013B0001860013101320129F4D902B07047C046EA
:1013C0000080034070B582B00E1C01AC2070081C78
:1013D00006F052F8C5B2280005F0FAFF011C301CD7
:1013E00005F095FF0A4905F0B2FF06F045F8657073
:1013F000A070002108E0074B9B699B06FBD4207876
:10140000044B1860013101340229F4D902B070BDD7
:101410000000C8420080034030B583B06B46DA1D3F
:1014200064231370002108E0114B9B699B06FBD4D9
:1014300014780F4B1C60013101320029F4D00025D3
:101440000BE00B4B9B699B06FBD41478084B1C608C
:10145000013101320A29F4D90135082D06DCAA0030
:1014600052195200521982180021F3E703B030BD1F
:101470000080034010B5134B9B6910210A001A40ED
:1014800019421DD010BD0F4B9B69DB06FBD40D4BE1
:101490001B680B7001320131012AF4D90A4B19780B
:1014A0000A4A11705B780A4C23700A4B01221A70A9
:1014B000094806F033FA2178084806F02FFAE1E7E8
:1014C0000149E9E700800340800C00204E21002004
:1014D0004F21002047210020F0AB0010F8AB001096
:1014E000064A136801331360054A13680133136019
:1014F000044A1368013313607047C046541E00202D
:101500008C0C0020581E0020044A1368013313601D
:10151000034A1368013313607047C046D01A002095
:10152000D41A0020014B18687047C046581E00208E
:10153000014B18687047C046D41A0020014B186848
:101540007047C046541E0020014B18687047C046C3
:10155000D01A002010B5024B186805F039FF10BDF5
:101560008C0C0020014B00221A6070478C0C00206C
:10157000014B00221A607047541E0020014B0022CC
:101580001A607047D01A0020014B00221A60704781
:10159000581E0020014B00221A607047D41A002008
:1015A00010B5034905F0BDFE05F034FF10BDC0467F
:1015B0003B4E713F10B50E2802D00F2803D010BD4E
:1015C000FFF78EFFFBE7FFF79FFFF8E710B506F088
:1015D000B1F9192001F01EFAD024240680239B04BF
:1015E00063620E2001F016FA8023DB01A362002261
:1015F00001210E2001F026F90F2001F00BFA8023C3
:101600001B02A362002201210F2001F01BF910BD73
:1016100010B5062001F0FEF9072001F0FBF90820C3
:1016200001F0F8F9092001F0F5F9D0231B0640225A
:101630005A6240325A6280325A620132FF325A6232
:1016400010BD000070B51F4E30800421002001F055
:10165000E1F8052003F088F91B4904F0C3FB05F00D
:10166000B2FE051C05F008FFC4B2200005F0B0FE74
:10167000011C281C05F04BFE8321C90505F067FEFF
:1016800005F0FAFEC3B220011843104C6060104B05
:10169000236133885801C01A8000C018C00064213B
:1016A00004F0A0FB83B2013B9BB20A4A126853408C
:1016B0001B041B0C084A1360226801239343074A4A
:1016C000136070BD4021002040420F000000054023
:1016D000E70300000C0005400C1005400010054019
:1016E00070B51F4E30800421012001F093F80520D1
:1016F00003F03AF91B4904F075FB05F064FE051C84
:1017000005F0BAFEC4B2200005F062FE011C281CE0
:1017100005F0FDFD8321C90505F019FE05F0ACFEBD
:10172000C3B220011843104C6060104B2361338812
:101730005801C01A8000C018C000642104F052FB98
:1017400083B2013B1B040A4A126853401B0C1B0462
:10175000084A1360226801239343074A136070BD4F
:101760004021002040420F0000000540E703000038
:101770000C0005400C10054000100540F0B5C646B1
:1017800000B582B0FFF7DAFE05F022FE051CFFF778
:10179000DBFE05F01DFE041C2C49281C05F0C1FDD4
:1017A0002B4905F0D4FD051CFFF7E2FE2749201C5C
:1017B00005F0B7FD264905F0CAFD041CFFF7DEFE63
:1017C000211C281C05F0A3FD041C224905F0A4FDE2
:1017D00080460021201C05F09AFD071C1E49201C94
:1017E00005F0B5FD061C1B49404605F0B0FD011C87
:1017F000301C05F091FD061C1849381C05F0A7FDAA
:10180000011C301C05F088FD8046201C05F04CFEB4
:1018100006000F00124C281C05F046FE00900191B6
:1018200032003B00200006F079F80E4B188805F0D6
:10183000CFFD414605F070FD05F01EFE80B2FFF7BA
:101840004FFF012002B080BCB846F0BD0000A041AF
:10185000000070423333733F7B142E3ECDCC4C3EA0
:1018600008AC00104021002010B50A4C462323800C
:101870004620FFF7E7FE2088FFF732FFD0231B0644
:1018800040229A6140325A6180329A610132FF32BD
:101890005A6110BD40210020D0231B0640229A61CE
:1018A00040329A6180329A610132FF329A61704708
:1018B00010B5FFF769FEFFF7D7FFD0231B064022C4
:1018C0009A6140329A6180329A610132FF325A61E4
:1018D0000020FFF705FFFFF725FE05F079FD03E087
:1018E000FFF720FE05F074FD034905F061FD0028B7
:1018F000F6D1FFF7D1FF10BD0000144210B5FFF77D
:1019000043FEFFF7B1FFD0231B0640229A6140320D
:101910009A6180329A610132FF325A610020FFF7EA
:10192000DFFEFFF7FFFD05F053FD03E0FFF7FAFDD3
:1019300005F04EFD034905F03BFD0028F6D1FFF709
:10194000ABFF10BD0000A04110B5FFF723FEFFF76D
:101950008BFFD0231B0640229A6140325A618032AD
:101960009A610132FF329A610020FFF76BFEFFF7A8
:10197000DFFD05F02DFD03E0FFF7DAFD05F028FDA2
:10198000034905F015FD0028F6D1FFF785FF10BDCE
:101990000000A041F0B5C64600B582B0051CFFF7B7
:1019A000E1FD281CFFF7FCFD05F012FD8046194DF6
:1019B00046232B804620FFF745FE2888FFF790FE40
:1019C000D0231B0640229A6140325A6180329A61CC
:1019D0000132FF325A6111E0FFF7BCFD041C05F033
:1019E00063FD06000F000C4D404605F05DFD0090C4
:1019F000019132003B00280005F090FF4146201C79
:101A000005F0D6FC0028E7D1FFF746FF02B080BC06
:101A1000B846F0BD4021002020AC0010F0B5C6460D
:101A200000B582B0051CFFF79DFD281CFFF7B8FD2F
:101A300005F0CEFC8046194D46232B804620FFF74B
:101A400001FE2888FFF74CFED0231B0640225A6176
:101A500040329A6180325A610132FF329A6111E05C
:101A6000FFF778FD041C05F01FFD06000F000C4D6C
:101A7000404605F019FD0090019132003B0028001E
:101A800005F04CFF4146201C05F092FC0028E7D1F0
:101A9000FFF702FF02B080BCB846F0BD4021002035
:101AA00020AC001070B582B00E0001248440D02517
:101AB0002D066C610A20002102F01EF9AC61D023D2
:101AC0001B065B68F340DB07F9D502F0DBF90090F9
:101AD0000191002917DB00240025D0231B065B6839
:101AE000F340DB0715D501220023A4185D41012036
:101AF000002102F001F9002D03D1EED10F4B9C42E1
:101B0000EBD9002012E00E4B0E4A0F483F2102F0A5
:101B100077FD02F0B7F902000B1E09DB009801996E
:101B2000121A8B411000190005F0B0FC02B070BD14
:101B3000034B044A04483F2102F062FDF4650000B3
:101B400038AC0010ACAC001054AC001070B50024E0
:101B500012E026000A36300000F05CFF2500103548
:101B6000280000F057FF01231900B140D0221206CF
:101B70005162AB4093620134032CEADD70BD00007A
:101B8000F8B507000E00002500240CE031003800F5
:101B9000FFF788FF0C4905F0C4FB011C201C05F071
:101BA000BBFB041C0135092DF0DD0849201C05F0A4
:101BB000B8FB041C05F078FC02000B00044805F09B
:101BC000ADFE201CF8BDC046000068420000204168
:101BD0009CAC001000B585B003AA6B231380054BA5
:101BE0001868002300930233682108F007FF05B04E
:101BF00000BDC0462C04002030B587B005000F2280
:101C00006A443B2313700F4C20683A3B00936821D1
:101C100008F0F4FE206800230093063304AA68212C
:101C200008F0F8FE002308E05A0004A98C5C2402A6
:101C3000501C095C2143A9520133022BF4DD07B08B
:101C400030BDC0462C04002070B51D0004AB00243C
:101C50001C5F431A601B5843511A04F09BF840194B
:101C600000B270BD70B54642484204F0ABFB0400C0
:101C70000D00300004F0A6FB22002B0004F022FC33
:101C8000034A044B04F006FB04F0F0FB70BDC046B1
:101C9000F1D4C853FB21094010B505F005FC04F050
:101CA000FBFB0022024B04F01CFB04F0DFFB10BD29
:101CB00000003440F0B5D6464F464646C0B584B025
:101CC00000239846002557E002A8FFF795FF5A2306
:101CD0005B429946C9277F000A26FF366B460A20D9
:101CE000185E5A239A4600934B463A003100FFF79C
:101CF000ABFF04B26B460C20185E534600934B4674
:101D00003A003100FFF7A0FF00B26442404204F005
:101D100059FB06000F00200004F054FB32003B008A
:101D200004F0D0FB1C4A1D4B04F0B4FA04F09EFBF7
:101D300005F0BAFB04F0B0FB0022194B04F0D1FA15
:101D400006000F00404605F0AFFB32003B0004F0F8
:101D5000A1FA04F08BFB80461248290005F0DEFD55
:101D6000404605F0A1FB02000B000F4805F0D6FD30
:101D700001351E2001F0ECFF96235B009D42A3DBA2
:101D80000A49404605F0CDFA094B186004B0E0BCA2
:101D9000BA46B146A846F0BDF1D4C853FB2109406C
:101DA00000003440C4AC0010D8AC001000009643D2
:101DB000301E0020F0B5D6464F464646C0B584B02A
:101DC0000023984600242CE002A8FFF715FF5A23B1
:101DD0005B429946C9256D000A27FF376B460A20EA
:101DE000185E5A239A4600934B462A003900FFF7A3
:101DF0002BFF06B26B460C20185E534600934B46F1
:101E00002A003900FFF720FF01B23000FFF72AFF58
:101E1000FFF742FF011C404605F07EFA8046013480
:101E200024B2132CD0DD0549404605F07AFA04B0FF
:101E3000E0BCBA46B146A846F0BDC0460000A0418D
:101E400010B50E4B18680E4908F0ACFD03210220B6
:101E500000F0E0FC0321032000F0DCFC0022012163
:101E6000022000F0EFFC00220121032000F0EAFC38
:101E7000FFF7B0FEFFF71EFF10BDC0462C04002088
:101E8000801A060070B5FFF795FF224B196805F020
:101E90003EFA061C05F008FB04000D001E4A1F4B0D
:101EA00004F078FA002808D01D4B1868311C05F0A2
:101EB0007FFA002801D01A4B1E60174A174B2000EA
:101EC000290004F051FA002809D0154B18680021A8
:101ED00005F074FA002802D0124B01221A70114B3F
:101EE0001B78002B06D1104822002B0005F016FDB0
:101EF000012070BD0A4E306805F0D6FA02000B00D2
:101F00000A4805F00BFD00233360064B00221A70CF
:101F1000E9E7C046301E0020666666666666E63FF4
:101F2000C81600204521002004AD0010E8AC0010C8
:101F300010B508F07BFD1F211A2000F06BFC002279
:101F400000211A2000F07EFC00211A2000F04AFD3A
:101F5000034B1B68E022D2011340024A136010BDFC
:101F600000C0044000D0044070B5002500240023C8
:101F700003E00E5DD654013401331D2B05DCDE0772
:101F8000F7D4465DD6540135F6E770BD10B50A2387
:101F900009E05A1EC45C0C498C5403E01A00153A3F
:101FA000082A0CD90133132B0DDC092BF1DD1A00A3
:101FB0000A3A082AF2D8C45C04498C54F2E7C45C9B
:101FC00003498C54EEE710BD74200020E80A00207D
:101FD000A40D002070B506000D00074805F09EFC1A
:101FE000002405E0325D0548210005F097FC01342E
:101FF000AC42F7DB70BDC04620AD001034AD001020
:1020000030B5002300E00133934205DAC55CCC5CB7
:10201000A542F8D0012000E0002030BD70B5D2B05C
:102020004FA8DF4B0200190030C930C20978117087
:102030004CA91A000C3260CA60C112780A7049A912
:102040001A00183260CA60C112780A7046A91A00D4
:10205000243260CA60C112780A7043A91A00303273
:1020600060CA60C112780A7040A91A003C3260CA86
:1020700060C112780A703DA91A00483260CA60C176
:1020800012780A703AA91A00543260CA60C11278F4
:102090000A7037A91A00603260CA60C112780A70EB
:1020A00034A91A006C3260CA60C112780A7031AA71
:1020B000783330CB30C21B7813702EA9B94B1A1D60
:1020C00060CA60C112780A702BA91A00103260CA67
:1020D00060C112780A7028A91A001C3260CA60C157
:1020E00012780A7025A91A00283260CA60C11278D5
:1020F0000A7022A91A00343260CA60C112780A70CC
:102100001FA91A00403260CA60C112780A701CA967
:102110001A004C3260CA60C112780A7019A91A00FC
:10212000583260CA60C112780A7016A91A00643267
:1021300060CA60C112780A7013A91A00703260CAAE
:1021400060C112780A7010AA7C3330CB30C21B7881
:1021500013700DA9944B1A00083260CA60C112783E
:102160000A700AA91A00143260CA60C112780A7093
:1021700007A91A00203260CA60C112780A7004A947
:102180001A002C3260CA60C112780A7001AA383372
:1021900030CB30C21B78137084490922FFF730FF1F
:1021A000002800D1D3E0814909224CA8FFF728FF7D
:1021B000002800D1D4E07D49092249A8FFF720FF7B
:1021C000002800D1D4E07949092246A8FFF718FF7A
:1021D000002800D1D4E07549092243A8FFF710FF79
:1021E000002800D1D4E07149092240A8FFF708FF78
:1021F000002800D1E8E06D4909223DA8FFF700FF63
:10220000002800D1E8E0694909223AA8FFF7F8FE62
:10221000002800D1E8E06549092237A8FFF7F0FE61
:10222000002800D1E8E06149092234A8FFF7E8FE60
:10223000002800D1E8E05D49092231A8FFF7E0FE5F
:10224000002800D1E8E0594909222EA8FFF7D8FE5E
:10225000002800D1E8E0554909222BA8FFF7D0FE5D
:10226000002800D1E8E05149092228A8FFF7C8FE5C
:10227000002800D1E8E04D49092225A8FFF7C0FE5B
:10228000002800D1E8E04949092222A8FFF7B8FE5A
:10229000002800D1E8E0454909221FA8FFF7B0FE59
:1022A000002800D1E8E0414909221CA8FFF7A8FE58
:1022B000002800D1E8E03D49092219A8FFF7A0FE57
:1022C000002800D1E8E03949092216A8FFF798FE56
:1022D000002800D1E8E03549092213A8FFF790FE55
:1022E000002800D1E8E03149092210A8FFF788FE54
:1022F000002800D1E8E02D4909220DA8FFF780FE53
:10230000002800D1E8E0294909220AA8FFF778FE51
:10231000002800D1E8E02549092207A8FFF770FE50
:10232000002800D1E8E02149092204A8FFF768FE4F
:10233000002800D1E8E01D49092201A8FFF760FE4E
:10234000002800D0E8E01A4805F0B6FA06E041217E
:102350006130FFF721F8174805F0AEFA52B070BDB2
:1023600042216130FFF718F8134805F0A5FAF5E7A8
:1023700043216130FFF710F8104805F09DFAEDE7B2
:1023800044216130FFF708F80D4805F095FAE5E7BC
:1023900045216130FFF700F80A4805F08DFADDE7C6
:1023A00070B00010F0B0001070B10010E80A00200A
:1023B0001CB0001044AD001060AD00107CAD0010EA
:1023C00098AD0010B4AD001046216130FEF7E4FF77
:1023D000534805F071FAC1E747216130FEF7DCFF91
:1023E000504805F069FAB9E748216130FEF7D4FF9B
:1023F0004D4805F061FAB1E749216130FEF7CCFFA5
:102400004A4805F059FAA9E74A216130FEF7C4FFAE
:10241000474805F051FAA1E74B216130FEF7BCFFB8
:10242000444805F049FA99E74C216130FEF7B4FFC2
:10243000414805F041FA91E74D216130FEF7ACFFCC
:102440003E4805F039FA89E74E216130FEF7A4FFD6
:102450003B4805F031FA81E74F216130FEF79CFFE0
:10246000384805F029FA79E750216130FEF794FFEA
:10247000354805F021FA71E751216130FEF78CFFF4
:10248000324805F019FA69E752216130FEF784FFFE
:102490002F4805F011FA61E753216130FEF77CFF08
:1024A0002C4805F009FA59E754216130FEF774FF12
:1024B000294805F001FA51E755216130FEF76CFF1C
:1024C000264805F0F9F949E756216130FEF764FF27
:1024D000234805F0F1F941E757216130FEF75CFF31
:1024E000204805F0E9F939E758216130FEF754FF3B
:1024F0001D4805F0E1F931E759216130FEF74CFF45
:102500001A4805F0D9F929E75A216130FEF744FF4E
:10251000174805F0D1F921E7164805F0CDF91DE778
:10252000D0AD0010ECAD001008AE001024AE0010CD
:1025300040AE00105CAE001078AE001094AE0010FB
:10254000B0AE0010CCAE0010E8AE001004AF00102A
:1025500020AF00103CAF001058AF001074AF001057
:1025600090AF0010ACAF0010C8AF0010E4AF001087
:1025700000B0001038B0001010B55A4B1B688342F1
:1025800003DA594A1268002A0AD0834203DD564B07
:102590001B68002B1AD1554B1C680F2C2CD010BD7A
:1025A000534A916A534B1868091A53480160926A5A
:1025B0001A604E4A13685148C154013313604A4BA4
:1025C00001221A604E4805F0A9F9E4E7484A916AE9
:1025D000484B1868091A48480160926A1A60494ACB
:1025E00013684948C154013313603F4B00221A60FD
:1025F000464805F093F9CEE7454B00221A60454B5B
:102600001A6008E03D4AD05C43490A6812180A6023
:10261000404A013313603F4B1B689C42F2DC3E4B47
:1026200018680F2103F0B6FB394B1860394B0022B4
:102630001A6005E0394A0121D154364A013313604A
:10264000344B1B689C4207DD2C4AD25C9042F1DD82
:10265000324A0021D154F0E72E4B314A12681A60F9
:1026600008E0294AD05C2F490A6812180A60294AF2
:1026700001331360274B1B68224A1468A342F0DB26
:10268000284B18680E2103F085FB274B1860214B5F
:1026900001221A6005E0254A0121D1541D4A013367
:1026A00013601C4B1B689C4207DD174AD25C9042AA
:1026B000F1DD1E4A0021D154F0E71D4C1B4917489B
:1026C0002200FFF751FC2000FFF760FC1E212000D4
:1026D000FFF780FCFFF7A2FC044B00221A60094BB5
:1026E0001A605CE73404002030040020040B002052
:1026F0000040054080200020880C0020F40A0020C3
:1027000058B000103C2100202C21002064B00010A3
:10271000C80A0020CC1A00208C200020D80A0020F3
:102720003804002090200020D00A002064200020DF
:10273000380C002010B5274B04221A60264B1B686A
:10274000DB05FBD5244B58680004000C234B1A68AA
:1027500080181860224A136801331360FA2292002D
:10276000934219D01D4B00221A601D4B1A601D4860
:102770000932002104F088FF1B480F22002104F0D9
:1027800083FF1A480F22002104F07EFF18481E2202
:10279000002104F079FF10BD164B1B68002B03D1FC
:1027A000154B9A6A134B1A60FA21890003F0F2FA6A
:1027B0000400124B186003F005FE114A114B03F0A0
:1027C00090FD03F053FE104B18602000FFF7D4FE7D
:1027D000C8E7C04600E0044000C00440A420002038
:1027E000B40A0020E80A0020D80A00206420002053
:1027F000380C00208020002000400540CC0A00203A
:10280000B4D934E70C684A3F840C002010B5FFF7B8
:1028100091FF10BD10B58300084A944663441A68BE
:1028200040246240803414408022520113431C60D3
:10283000C000034B9C466044416010BD04C0014091
:102840000040014080000B4B9C46604400290DD0A5
:102850000823002A0CD004221343026853400C22A0
:102860001A4080235B0103431A6070470023F0E79E
:102870000022F1E704C0014070B50400D0231B061C
:102880001D680D4BAA00D358002B0AD0002803D096
:10289000094BAD00EC5070BD08490D2000F038FB2D
:1028A000F6E70028F7D0044BAD00E85003490022BA
:1028B0000D2000F015FAEEE7080C00204D2900105D
:1028C000072303409B00C00899403C308000014B27
:1028D000C150704700400140F8B507000C001600D9
:1028E0001D00FFF7EDFFFB089B00ED1807203840A7
:1028F00080008440002E04D080239B012B431C6069
:10290000F8BDC0239B012B431C60F9E710B5D02311
:102910001B061B68002B03D0024BFFF7DDFF10BD29
:10292000014BFAE7304101400041014070B514000D
:102930001D00FFF7EBFF2800FFF79EFF002C00D1E2
:1029400070BD01210D2000F077F9F9E7F0B5D6460A
:102950004F464646C0B5D0231B061F681D4BBA0024
:10296000D3589846002F03D01B4B9946002623E0EE
:102970001A4B9946FAE724090135002C1BD0330085
:102980000833AB4217D90F231A0022409246234244
:10299000F1D0134BBA00D2580123AB401342EAD115
:1029A00051462800FFF78CFF4346002BE3D05146E9
:1029B0002800C047DFE708361D2E06D8F308083385
:1029C0009B004A469C583500D7E7E0BCBA46B14662
:1029D000A846F0BD080C00203041014000410140F4
:1029E000441E0020002909D08000094B9C46604409
:1029F00080239B01034340221A6070478000044BF0
:102A00009C466044C0239B01034340221A60F4E7C4
:102A100004C0014010B501238340D0221206936206
:102A200093610521FFF7F6FE10BD0000EFF3108063
:102A300072B6034B1B68002BFBD0BFF35F8F704750
:102A40002C0100D0BFF35F8F024B00221A6080F38D
:102A5000108870472C0100D0F8B506000C00150056
:102A6000FFF7E4FFE308F718F15C07222240012397
:102A700093400B4205D1DBB20B433B70FFF7E2FF03
:102A8000F8BD2100280001F055FEF0B583B0060026
:102A9000019114001F00FFF7C9FF00E00134BC42A0
:102AA0000CD8E308F518F35C0721214001228A4085
:102AB0001A42F3D1D2B21A432A7001E001246442CF
:102AC000FFF7C0FF002C02DB200003B0F0BD019B2C
:102AD000002BF9D0089801F02DFE0000034B1B6875
:102AE00002201840431E9841C0B2704700C0064003
:102AF000002307E0054A9A189200BFF35F8F002178
:102B0000116001331F2BF5D97047C04640000034D7
:102B1000054A1078431CDBB21370172B02D913003F
:102B200010221A707047C0463C04002010B582B0D5
:102B30000100054C054B00931F2318222000FFF7CE
:102B4000A4FF02B010BDC046340C0020B4B1001088
:102B5000074B9B68103080001950BFF35F8FBFF3A5
:102B60005F8F044B0021196082F310887047C046C4
:102B700000ED00E0240100D010B5091A0B1F0A4A2D
:102B800094466144094A914208D8DA0706D45B109A
:102B90005B055B0D0648184380B210BD054B064A25
:102BA0000648992101F02CFDFC070000FE0F0000F3
:102BB00000E0FFFFD0B1001030B4001000B20010F0
:102BC00010B5091A04394A08090B08D14905490DFD
:102BD000064B0B430380064B1343438010BD054B4C
:102BE000054A0648A12101F00BFDC04600F0FFFF99
:102BF00000F8FFFF40B2001004B4001000B2001053
:102C000001238340034A10681840431E9841C0B214
:102C10007047C04600E100E0002904D0034B186073
:102C2000034B18607047034B1860FBE780E200E03D
:102C300000E100E080E100E010B5012383401800CE
:102C4000FFF7EAFF10BD000001238340014A136033
:102C50007047C04600E200E0024B9B6810308000E5
:102C6000C058704700ED00E010B5FFF7F5FF0028F1
:102C700005D0054BC01A2F2803D8012010BD002015
:102C8000FCE70020FAE7C0464004002070B50400CD
:102C90000D00EFF3108672B60C4B1B68002BFBD0B7
:102CA000BFF35F8F2000FFF7D7FF094B984201D099
:102CB000A84205D1320029002000FFF749FF70BD6E
:102CC000044B054A05487C2101F09AFC240100D000
:102CD000CD01001050B2001064B4001000B200101A
:102CE000F0B5DE4657464E464546E0B589B08146CA
:102CF00001911500EFF3108A72B6744B1B68002B1C
:102D0000FBD0BFF35F8F724B0027DF57002F40DBF4
:102D10007C00E419A4006F4824180622A2566C4BCC
:102D20001A706D4B9A684B4610339B00D3589846E7
:102D30001E00181A2F2838D9684B98452FD105AE98
:102D4000674B338067497B009B46D8198000614BF5
:102D5000984640440230FFF70FFF7080624BB3800B
:102D6000FF23B371F571019B07935F44BB0043449C
:102D700007CE07C301231C43A0465246414648469E
:102D8000FFF7E6FE09B0F0BCBB46B246A946A04636
:102D9000F0BD564B564A5748CD2101F031FC564BF9
:102DA000534A5448D42101F02BFC01380C2103F084
:102DB00019F8002912D101239E43B346330000269F
:102DC000DA79AA4211D90621595600290CDB4A00AA
:102DD000521892003F491E008B18F1E7474B444AB6
:102DE0004448E02101F00CFC1E00002E3BD005AB56
:102DF000434A1A80813A5A800623F3560293002BE5
:102E000018DABD20000205AB9B469880029A9A71A1
:102E1000DD71019A0792301D2100FFF7ADFEB080F1
:102E2000B7712C4B7A00D21992009B185A4613CADC
:102E300013C3A2E77800C0198000264BC0180430E5
:102E4000311DB388DA0A1C2A07D15B055B150233F2
:102E50005B00C918FFF790FED5E72A4B2A4A2548A0
:102E6000A72101F0CDFB05AE1D4B33801D497B0032
:102E70000293DB199B00174A90461A0042440392C2
:102E8000901CFFF779FE7080039A101D5946FFF7DA
:102E900073FEB0801D4B5A464146521A524153436D
:102EA0001B0DB371F571019A0792029B9C46674412
:102EB000BB00434407CE07C3114B5A461380813BE6
:102EC000538001231C43A04657E7C046240100D08D
:102ED000492100204004002000ED00E0CD01001059
:102EE00000A1FFFF7004002000BDFFFF88B20010AA
:102EF0004CB4001000B20010B0B20010D8B20010F4
:102F0000014800004CB300103CB40010AAAA000015
:102F1000F0B5CE46474680B583B006000D00EFF30E
:102F2000108872B6554B1B68002BFBD0BFF35F8F28
:102F3000534B9A6834001034A300D758514B9F422A
:102F400007D0AF4200D197E001974F4BFB1A2F2BD0
:102F500009D9424639003000FFF7FAFD03B0C0BC82
:102F6000B946B046F0BD3000FFF74AFE8146002169
:102F70003000FFF761FEBFF35F8FFDF774F90028A3
:102F800001D0844211D10123019C9C430021A368FC
:102F9000AB4212D00622A256002A0DDB53009B182A
:102FA0009B00394A2100D418F1E7384B384A2C21CC
:102FB0003848FF3101F024FB2100AB4255D10625F2
:102FC0006557002D37DB304B6A00521992009B1871
:102FD0009A68A260DA79E2719B795BB2A371002BE7
:102FE00010DABD200002A080274B6A00521992001F
:102FF0009B18294A11789971157049463000FFF7DE
:103000001BFEA6E7201D6B005B199B001E4A9B1848
:10301000191D9B88DA0A1C2A07D15B055B15023350
:103020005B00C918FFF7A8FDDDE71C4B1C4A1948D7
:10303000A72101F0E5FA002812D100290ED0FF23C4
:103040008B71184B8B8014490B78A3710E4A164B69
:10305000A41A644163431B0D0B70CEE7094FF2E7DE
:103060001249201DFFF7ACFDC7E7114B084A60214C
:103070000848FF3101F0C4FA024F6AE7240100D08A
:1030800000ED00E0CD0100104004002064B300100A
:103090001CB4001000B20010492100204CB30010F5
:1030A0003CB4001000BDFFFFAAAA00007A04002073
:1030B00088B3001070B50400012606432D4BF31AA7
:1030C0002F2B28D8FDF7CFF800282BD0EFF3108C4A
:1030D00072B6294B1B68002BFBD0BFF35F8F254ACC
:1030E000264D2100891A49414D432D0D6DB2244BC7
:1030F0009B6880001B58B3421BD00021032932D8A3
:103100001C4B4A00521892009B189B795BB2AB4251
:103110001FD00131F2E71B4B1B4AC2211B4849005B
:1031200001F06EFA1A4B184A88211848FF3101F055
:1031300067FA134B9B68174A1A50174B1A78A271FB
:103140001D70BFF35F8F0C4B00221A608CF3108848
:1031500070BD084B4A00501880001818FF26867171
:103160000E4A8280E9E70E4B074ACC210748490006
:1031700001F046FA40040020240100D0AAAA000071
:1031800000ED00E090B30010E8B3001000B20010B2
:10319000B8B30010CD0100104921002000BDFFFF91
:1031A000C4B300100022044B02E0044902C3013200
:1031B000072AFAD97047C04600E400E0808080808A
:1031C00000B583B00100D0231B061B680648C01859
:1031D000064B009305230022FFF757FC002801DB74
:1031E0001F23181A03B000BDC4200020CCB3001068
:1031F000024B9C46614489000160704740000034E6
:1032000010B50C00CB68834207D10B6908009847C2
:10321000002809D02068616810BD064B064A962137
:103220000648490001F0ECF90023E360002000218A
:10323000F2E7C04680B40010E0B6001094B400106D
:1032400070B505000C00080000F010FE200000F032
:10325000F5FE0849200000F035FEFFF759FC064B4B
:103260009C466044800068602C75044BA400E550C7
:1032700070BDC0467535001040000034341E00207B
:103280000A4B1A68EFF3108172B61368002BFCD05A
:10329000BFF35F8F054B1B68BFF35F8F00221A607F
:1032A00081F3108840BF002000217047602000207B
:1032B00010B5002920D003681B7B99421CD8836875
:1032C000154CA446614409015B181C685968002A22
:1032D00018D003681B7B9A4214D883680E48844632
:1032E000624412019B181A685B6801208B4201D866
:1032F0000ED00020C0B210BD084B094A09483B213E
:1033000001F07EF9054B064A06483B2101F078F9A9
:10331000A242EFD8EDE7C046FFFFFF0FCCB400108C
:1033200048B7001094B4001010B500291DD0037BDD
:1033300099421AD804684B005B18033BE418002933
:1033400019D0002A1DD0914221D0002A25D0037B1C
:103350009A4222D8006853009B18033BC318997007
:10336000217800291FD1227010BD104B104A11483E
:10337000682101F045F9104B104A0E486F3101F0F9
:103380003FF90F4B0D4A0B48702101F039F90D4BF5
:103390000A4A0848712101F033F9044B044A0548F0
:1033A000682101F02DF959702270DDE700B5001099
:1033B000B4B700101CB5001068B5001090B700102D
:1033C00074B5001080B5001070B506000D00140033
:1033D000002914D0002A14D0436880689847002838
:1033E00006D0220029003000FFF79EFF280007E0EA
:1033F0002A0021003000FFF797FF200000E01000B6
:1034000070BD0800FCE70000F0B583B00500009235
:1034100001930AAB1C780BAB1F78002C26D00368F5
:103420005A7B944207D10123002B19D1002C3AD1A9
:10343000200003B0F0BD002C0CD01A7B944209D8B8
:103440001A6863001B19033BD3189B78002BEBD041
:103450000123E9E73C4B3D4A3D48682101F0D0F8A3
:103460003C4B3D4A3D48652101F0CAF803689C7B0E
:10347000002CDBD011D01A7B94420ED81A68610060
:1034800009190339521851789973002900D1D97359
:103490000023937053701370C8E72B4B2B4A2C48B2
:1034A000682101F0ADF8002C37D02B681B7B9C42C3
:1034B00033D8AB682A4AA21812019B18009A1A60E6
:1034C000019A5A60089A9A60099ADA602E68002C6C
:1034D00029D02ED0337B9C422BD83368620012193E
:1034E000033A9B1800229A705A701A70717B22005E
:1034F0003000FFF769FF7073844299D1287D009AEC
:10350000019B00F027FD061E01D0002F17D00C9B59
:10351000002B00D18CE71E708AE7124B124A0F482D
:103520003B2101F06DF8114B114A0948A52101F02A
:1035300067F8054B054A0648682101F061F82868DC
:10354000210000F029FFE2E700B50010B4B7001039
:103550001CB5001098B50010C0B7001094B400104E
:10356000FFFFFF0FCCB4001048B7001090B400105C
:10357000A4B70010F0B5DE4657464E464546E0B5C6
:103580008BB0099000230893B24B8200D55833E0EA
:10359000B14BB24AB2483F2101F032F8B14BB24AC6
:1035A000B2483B2101F02CF8B14BB24AAF488C2114
:1035B00001F026F8B04BAF4AAC48902101F020F85A
:1035C000A84BAE4AA948402101F01AF843461A68B0
:1035D0005B68099800F0BEFC00239B469A466B6826
:1035E000BFF35F8F00221A6089F310885346002BC7
:1035F00053D1002800D126E100F044FC02000B1E4C
:10360000C6DB00200021069007916868EFF310895F
:1036100072B601680029FCD0BFF35F8F2868447B35
:10362000002C35D0BAD0017B8C42B7D8AE68944913
:1036300061180901B046884441460E684F68B61AC1
:103640009F41002FC2DC01D1002EBFD1002100F02C
:1036500099FEA042A8D143461A685B680692079378
:1036600043469B689A464346DB689B465346002B7D
:10367000A0D0002CA4D02B681B7B9C42A0D8EA6869
:10368000631ED35C08931B02184328610020A6E741
:1036900000239B469A460020A1E7089B1B02234378
:1036A000984659461800D04706000F006A68EFF3A5
:1036B000108972B6136859424B41D9B2002BF9D127
:1036C000BFF35F8F002F26DB002F52DD2B69002B0D
:1036D00053D0434572D100F0D5FB02000B1E73DBC3
:1036E0000100180092197B41984202D804D19142FE
:1036F00002D901225242D317002B6BDB0021049127
:1037000001310391029459460191514600912800DC
:10371000FFF77AFE49E02B69002BD5D043451CD139
:10372000069A079B10001900921BBB41994202D8D0
:1037300004D1904202D901225242D317002B12DB4E
:10374000002104910131039102945946019151469F
:1037500000912800FFF758FE27E04A4B454A4348AE
:103760009F2100F04DFF3C4B3C4A3D483F2100F07B
:1037700047FF002F01D1002EA8D12A68002C44D089
:10378000537B9C422CD1012100293ED1D37B002BBD
:1037900041D1D473002C50D02B681B7B9C424CD859
:1037A000EA68013C135D0133135500232B616A68FD
:1037B000BFF35F8F136089F310881DE7314B2D4AEB
:1037C0002A48A22100F01CFF234B244A24483F2111
:1037D00000F016FF204B214A21483F2100F010FF46
:1037E000002C0CD0137B9C4209D8106863001B1975
:1037F000033BC3189B78002BC6D00121C4E7224BA2
:10380000224A2348682100F0FBFE224B224A20482E
:10381000F62100F0F5FE002B09D0117B8B4206D873
:1038200010685900CB18033BC3185C70B1E7164B06
:10383000164A1748682100F0E3FE0A4B0F4A0B486E
:10384000402100F0DDFE0BB0F0BCBB46B246A946FD
:10385000A046F0BD341E002038AC001014B7001094
:1038600054AC0010CCB4001048B7001094B4001051
:10387000C0B500102CB70010D8B500106CB7001000
:10388000FFFFFF0FE4B5001000B50010B4B7001043
:103890001CB5001020B6001080B7001010B50A4B00
:1038A0005B68002B04D009480A21FFF7A1FC10BD7A
:1038B000054C074A20682300102100F087FC0321F3
:1038C0002000FFF7BDFCEEE7880400206020002008
:1038D000B132001010B5064B5B68002B01D00448D4
:1038E00010BD044B044A05485C2100F089FEC04627
:1038F0008804002044B6001054B7001094B400109F
:10390000F0B5DE4657464E464546E0B58BB080469C
:1039100016001F00149B9A46159B994616AB1B7800
:103920009B461F2302AA9446634400221A7036E085
:10393000002809D042461268127B904204D84246C1
:10394000D168421E8A5C4CE0454B464A46484021BD
:1039500000F056FE0798002B79D05B46002B76D0FE
:103960004946D04704000D0003000B4300D175E029
:1039700000294ADB00F086FA02000B1E59DB010029
:10398000180012196B41984202D804D1914202D911
:1039900001225242D317002B51DB16001F00434671
:1039A0005A68EFF3108472B6136859424B41D9B28A
:1039B0000791002BF8D1BFF35F8F1F3302AA944603
:1039C000634404930023039302934B4601935346AD
:1039D000009332003B004046FFF716FD031EA7D1BF
:1039E000020041464968BFF35F8F00250D6084F3F4
:1039F0001088002B29D01F2302A98C4663441B7812
:103A0000002BA7D112021043A5E730003900361B66
:103A1000AF41B94202D804D1B04202D90126764260
:103A2000F717002FBBDA114B114A12483F2100F063
:103A3000E7FD0E4B0E4A0F483F2100F0E1FD0B4B16
:103A40000B4A0C483F2100F0DBFD012040420BB047
:103A5000F0BCBB46B246A946A046F0BD0798F6E7C3
:103A6000CCB400106CB7001094B4001038AC001047
:103A700014B7001054AC0010F8B504004268EFF31E
:103A8000108572B6136858424341D8B2002BF9D161
:103A9000BFF35F8FCBB22268567BB3421BD10120AC
:103AA000002847D0206988422AD0090AC9B2002BD1
:103AB0002DD02068007B834229D8E668581E305CF0
:103AC00088422AD000206368BFF35F8F00221A600B
:103AD00085F31088F8BD002B0CD0167BB34209D8B3
:103AE00017685E00F618033EBE19B678002ED7D0D0
:103AF0000120D5E7124B134A1348682100F080FDDE
:103B0000124B134A85211348490000F079FD124BEE
:103B1000124A1048402100F073FD1900100000F017
:103B20003BFC0028CFD10E4B094A12210948FF3136
:103B300000F066FD23698B42C5D100232361C2E7F3
:103B400000B50010B4B700101CB5001068B6001026
:103B5000FCB6001094B40010CCB400106CB7001088
:103B60008CB60010F0B585B007000C9E110019430B
:103B700001D101220023B7600A993161326073607C
:103B80000B997161D81701004240140043401D0099
:103B9000241A8D4100F076F902000B1E1ADB010099
:103BA000180012196B41984202D804D1914202D9EF
:103BB00001225242D317002B12DB01210291019600
:103BC0000A4900913800FFF79BFEF060C043C00F28
:103BD00005B0F0BD064B074A07483F2100F010FD35
:103BE000034B044A04483F2100F00AFD0132001053
:103BF00038AC001014B7001054AC0010F0B587B00A
:103C000006000F00FCF72FFB00281FD1062464429A
:103C1000E517A4197D41BD4202D803D1B44201D9B0
:103C200000240025002D14DB0494059500F02AF9EA
:103C300002000B1E13DBA41A9D41002D17DC14D0CB
:103C40003000390000F02AF907B0F0BD234800F039
:103C500071FD234B234A24483F2100F0D1FC204B27
:103C6000204A21483F2100F0CBFC002CE8D0FFF790
:103C700031FE0023029301931C4B0093049A059B91
:103C8000FFF73EFE002818DADAE7002300E0002301
:103C9000002BD5D1164B1A68EFF3108172B613685A
:103CA000002BFCD0BFF35F8F114B1B68BFF35F8FFE
:103CB00000221A6081F3108820BF0499059A0D4BE9
:103CC0005B6A9A42E3D80B48806A884203D29A42E0
:103CD000DBD00123DCE70123DAE7C04690B6001011
:103CE00038AC001014B7001054AC00108132001032
:103CF0006020002000400540F8B504000D0000F0F1
:103D0000C1F802000B1E10DB200029008018594169
:103D10008B4202D804D1824202D901204042C1170D
:103D2000002908DBFFF76AFFF8BD064B064A074883
:103D30003F2100F065FC034B034A04483F2100F09B
:103D40005FFCC04638AC001014B7001054AC001033
:103D500010B5FA2292000023002103F0BBFAFFF70E
:103D6000CBFF10BD70B584B006000C00FFF7B2FDAC
:103D7000002302930193194B009332002300FFF7B5
:103D8000BFFD051E11DD20BFFFF7A4FD2900FFF7D1
:103D900073FE134B5B6A9C421BD8114A926AB24273
:103DA0001AD29C4213D0012014E00D4B5B6A9C4256
:103DB00009D80B4A926AB24207D29C4201D0012034
:103DC00008E0002006E0002004E0012002E00020DE
:103DD00000E0002004B070BD0120FBE7813200103C
:103DE0000040054070B5EFF305833F2018401038C0
:103DF000EFF3108C72B6184B1B68002BFBD0BFF38F
:103E00005F8F012319008140144A5163144A1278CC
:103E10001400C440234213D0104B5C6A114B850040
:103E2000EB589C4205D3104BEB580D4C8A43227043
:103E300007E00A4A031D9B0099589950002300E0AF
:103E40000023BFF35F8F044A002111608CF31088B8
:103E5000002B00D0984770BD280100D000400540DD
:103E60004D21002094200020B80A002010B5010048
:103E7000024A034B1800FEF7EFFD10BDD8B7001043
:103E800046210020044B5B6A034A906A1900536A7A
:103E90009942F9D17047C04600400540084B5B6A23
:103EA00001E0074B5B6A8B42FBD301E0044B5B6A8A
:103EB0008B4203D1024B9B6A8342F7D37047C046C3
:103EC0000040054070B504000E00EFF3108572B697
:103ED0001B4B1B68002BFBD0BFF35F8F002E1CD049
:103EE0002000FEF7B9FE174B83420BD019002000CB
:103EF000FEF7CCFE01212000FEF79EFE0123A34029
:103F0000114A1360114BA400E650BFF35F8F0C4BB6
:103F100000221A6085F3108870BD0C4BA2000021AE
:103F2000D1500122A2400A490B7893430B700549F6
:103F30002000FEF7EDFF00212000FEF77DFEE4E704
:103F4000280100D0E53D001038600540B80A002087
:103F50004D210020F0B5DE4600B584B00400150008
:103F600001921E000293FFF78DFF03958E4202D847
:103F70004ED185424CD9EFF3108B72B6274B1B689C
:103F8000002BFBD0BFF35F8F254A17780125A54092
:103F9000EBB23B431370234B5D63221D92000199EA
:103FA000D150214AA100029888501B6A2B4212D19D
:103FB0001C4B1B6C2B4208D00020BFF35F8F174BAC
:103FC00000221A608BF3108823E0184B184A194816
:103FD000C12100F015FBFFF755FF8E4214D802D126
:103FE000039B834210D80E4B1B78BB420ED00D4B67
:103FF0001D625D631F222240012393400E4A13601D
:10400000074B1F700120D8E70020D6E70120D4E736
:10401000012004B080BCBB46F0BDC046280100D0E2
:104020004D2100200040054094200020FCB70010E6
:1040300064B8001020B8001080E200E0EFF3108CAC
:1040400072B60B4B1B68002BFBD0BFF35F8F0123B5
:104050008340084A136208490A789A430A70BFF3FA
:104060005F8F034B00221A608CF310887047C046A4
:10407000280100D0004005404D21002010B5002946
:104080001DD0037B99421AD804684B005B18033B90
:10409000E418002919D0002A1DD0914221D0002A0D
:1040A00025D0037B9A4222D8006853009B18033B1B
:1040B000C3189970217800291FD1227010BD104BB0
:1040C000104A1148682100F09BFA104B104A0E4824
:1040D0006F3100F095FA0F4B0D4A0B48702100F03C
:1040E0008FFA0D4B0A4A0848712100F089FA044BF7
:1040F000044A0548682100F083FA59702270DDE710
:1041000000B500106CB900101CB5001068B50010A7
:1041100058B9001074B5001080B5001070B50600D5
:104120000D001400002914D0002A14D043688068C0
:104130009847002806D0220029003000FFF79EFF94
:10414000280007E02A0021003000FFF797FF200039
:1041500000E0100070BD0800FCE7000010B500236F
:10416000437301338373037BC3730123027B9A423E
:1041700013D9002B0BD0027B934208D801685A0058
:10418000D218033A8A180133DBB25370EEE70C4BB6
:104190000C4A0D48682100F033FA002A09D09242F7
:1041A00007D8016853009B18033BCB1800225A70B4
:1041B00010BD034B034A0448682100F021FAC046B1
:1041C00000B500106CB900101CB5001010B50173DB
:1041D00042608360FFF7C2FF10BD000070B50400AD
:1041E000081E00D170BD002931D0237B99422ED802
:1041F00022684B005B18033BD3185A78002AF1D091
:104200002BD0237B9A4228D8216853009B18033B6C
:10421000CB185D7800215970002824D0237B984268
:1042200021D8216843001B18033BCB18002159708B
:1042300001002000FFF772FF060029002000FFF7B1
:10424000CDFF020031002000FFF768FFCAE7094BED
:10425000094A0A48682100F0D3F9064B064A074884
:10426000682100F0CDF9034B034A0448682100F0AF
:10427000C7F9C04600B500106CB900101CB500109D
:1042800070B505000C001600002927D02CD0037B48
:10429000994229D803684900091903395B185A78EB
:1042A000002A27D19A78002A2AD11978FFF796FF99
:1042B0000300002E03D0EA7B002A27D1EC73002BE9
:1042C00036D1002C47D02B7B9C4244D82A6863000F
:1042D0001B19033BD31800225A7070BD214B224A90
:1042E0002248382100F08CF9214B224A22486821CB
:1042F00000F086F9214B1C4A1C483A2100F080F955
:104300001F4B194A19483B2100F07AF9002A09D0BD
:10431000297B8A4206D82E6851008A18033AB218BF
:104320005470CBE7124B134A1348682100F068F928
:10433000002B0AD02A7B934207D82A6843001B1817
:10434000033BD31800229A70BBE7094B094A0A487D
:10435000682100F055F9064B064A0748682100F02D
:104360004FF9C04680B8001044B9001088B800105A
:1043700000B500106CB900101CB50010C0B80010DA
:10438000E8B8001070B504000A00457B2900FFF76B
:1043900077FF6073280070BD70B50400002966D0F7
:1043A000437B8B420ED0002911D0037B99420ED85B
:1043B00005684B005B18033BED18AB78002B0CD164
:1043C000002055E00121FFF7DDFF012050E0294BDF
:1043D000294A2A48682100F013F9002B1FD0027BDC
:1043E00093421CD800685A00D318033BC218C35C20
:1043F0008B421AD0002B1BD0227B934218D8206806
:104400005A00D318033BC01843788B4216D0002BB8
:10441000F0D11B4B1B4A1C48672100F0F1F8154BEB
:10442000154A1648682100F0EBF86B78137007E026
:10443000104B114A1148682100F0E2F86B78437084
:104440000023AB706B7001222000FFF719FF020000
:10445000617B814205D02000FFF760FE6073012080
:1044600006E00A4B074A08486D2100F0C9F8002011
:1044700070BDC04600B500106CB900101CB500102E
:10448000C4B300102CB9001088B800100CB900108B
:1044900010B50400FEF73CFB01002000FEF7A8FE6B
:1044A000FF232371BFF35F8F10BD10B50400FEF72B
:1044B0002FFB01002000FEF79BFEFF23237100234A
:1044C0006371BFF35F8F10BD034B9C46614489004D
:1044D0000160BFF35F8F70474000003410B50400E7
:1044E0000120FEF723FB01002000FFF7EDFF10BDC8
:1044F00070B504000D00062000F036FAC000290057
:1045000001F070FCC60908D00E4B9E4217D87F23DD
:104510000340013335005E0800E001256562A662B4
:104520002C3480239B01234300221A60062000F0D4
:104530001BFA8000A901891901F054FC70BD002606
:10454000014DEBE7FEFF0000FFFF0000002909D04E
:104550000A22064B9C46604443425841044B4000AB
:10456000C252704780225200F3E7C0460080FCBF71
:10457000A820002070B505000C00062000F0F4F91A
:10458000002829D0164B9D4227D08022D203154BFC
:104590001A60154B1A60154B9B6811009943FAD1AC
:1045A00000212800FFF7D2FF21002800FFF7A0FF1D
:1045B00029002C31EB6A602253400E321A408023CE
:1045C0005B010B431A600A4B2B6380239B010B4357
:1045D00010221A600323AB6470BD80221204D6E758
:1045E0000080034000E0004000F0004000C00040B8
:1045F0000103000000BEFDE710B5FFF7FBFF000060
:1046000030B583B00D001900002A0DD0084B002AE8
:104610000CD0084C019200932B000200200003F004
:104620007DF90120FFF7E6FF034BF0E7024AF0E7D0
:1046300040BA001050BA0010A8AC001070B52B4B57
:104640002B4A1A602B4B2C4A1A602C4B9A682A4B27
:104650009343FAD12A4C01E008CC9847294B9C425D
:10466000FAD300F001F9234B274A1A60234B9B68C9
:10467000DB43DB01FAD1254B40229A675A671A6760
:10468000DA66234C09E0234B234A24488321FFF7B1
:10469000B7FF2000FFF7FCFE0834214B9C4209D2F3
:1046A0002368002BF5D0012BEDD12000FFF7FDFE94
:1046B0000834F2E71B4DA9681B4CC022200002F011
:1046C000E9FFAC60FBF7CFFD002800D000BEFEF78D
:1046D0000FFAFEF767FDFFF7E1F8144C01E008CC94
:1046E0009847134B9C42FAD370BDC04600E000408F
:1046F000BFCDFBFE00F00040FE7F3C0000C000404C
:104700003C0500204C050020FFFFFF0100F00140A8
:104710003405002080BA0010F4BA0010A0BA0010CE
:104720003C05002000ED00E0000000204C050020CA
:10473000540500200FB400B583B0084803F0BCF85E
:10474000049B002B07D005A90191180003F0C4F8C1
:10475000034803F0B1F80120FFF74CFFE4BA001062
:10476000D4AC0010F8B5DE4657464E464546E0B597
:1047700006000F0015000A9A93424ED31A0E924675
:104780001B0298460A9A00234046514601F06CFBF2
:1047900081467400A419A4002E4B9C4664446368AF
:1047A000834200D26060331FDBB29B46012B3AD9B3
:1047B000C0239B012343802212011A60264BB200C2
:1047C000D158002905D0586901F00CFB013001389F
:1047D000FDD16D0123685D40E0222A4080235B010A
:1047E00023431A605A46012A28D980239B01234378
:1047F000802212011A604B4663604A4600234046FD
:10480000514601F031FB144BB60098510120F0BC29
:10481000BB46B246A946A046F8BD104B104A114807
:104820002D21FFF7EDFE012FC2D1C0239B012343B1
:1048300003221A60A368DB07FCD5CAE72168794028
:1048400003220A401A60A3680125BD401D42FAD028
:10485000CBE7C04600800040580C002004BB00108D
:104860005CBB001018BB001030B583B00C2000F00A
:1048700021F9FEF733F900280DD0002304E02E4A79
:1048800099002E4888500133092BF8D92A4B2C4A1D
:104890005A6203B030BD2B4B00229A6700F07CF9BE
:1048A000294B01221A60274B5B6C012BFBD1274B54
:1048B00003221A60234B9B6B012BFBD10133009326
:1048C0000433234A0121234800F054F805230093C0
:1048D000214A0121214800F04DF8214B009300228C
:1048E00002210420FFF73EFF1E4D00952B00002201
:1048F00001210520FFF736FF104C00942300002211
:1049000000210720FFF72EFF009423000022002142
:104910000820FFF727FF0A4B009323000022002105
:104920000920FFF71FFF00952B0000220021062021
:10493000FFF718FFADE7C046580C0020006CDC0202
:104940001BB70000008000403CB0004030B0004089
:10495000002F685900800240008C864700C002404A
:10496000001BB70040597307014B8000C0587047C7
:10497000580C0020F0B5C64600B504000F00904664
:104980001D000C2001F02EFA06003D4A42443D4B2A
:104990009A4243D843011B1A9901C91AC900091840
:1049A0008901404601F01EFA0200103A98235B008C
:1049B0009A4239D86B1E062B3CD8069B013B062B2E
:1049C00038D8069B9D423BD343461B09B3423DD397
:1049D0002D04069B1E0335432368002B3CDB2A4B2A
:1049E0009C424AD080235B01284A1360284A136006
:1049F000284A926819009143FAD12760A060221DCD
:104A0000C0239B01134321221A602268002AFCDA8A
:104A1000E56008221A6080BCB846F0BD1E4B1F4AF4
:104A20001F481121FFF7ECFD1E4B1C4A1C481921A1
:104A3000FFF7E6FD1C4B194A19481C21FFF7E0FD62
:104A40001A4B164A16482221FFF7DAFD184B134A73
:104A500013482521FFF7D4FD22683F231340BB42B2
:104A6000BDD1A3681B051B0D8342B8D1E368EE22BC
:104A7000D2021340AB42B2D1CDE780239B01B3E712
:104A800080E84BD380F8A93200C0024000E000402B
:104A900000F0004000C000406CBB0010A8BC00103B
:104AA000CCBB00100CBC001028BC001074BC001063
:104AB0008CBC001080239B000343014AD3627047E3
:104AC00000800540024B1A68024B5A607047C0468E
:104AD000D81A00200080054010B50200164B802037
:104AE000C0051860154B1648186000290AD0154BF0
:104AF000E021C9041960002A09D1124B8022120654
:104B00001A6010BD0C4BE021C9041960F3E7530192
:104B10009B1A9800801800010B4B186080235B04DF
:104B2000984202D3084B094A1A60FFF7CBFF054BA6
:104B30008022D2051A60E4E700B005400820014059
:104B4000FCFF010000A00540D81A0020FFFFFF0075
:104B500010B5030010000C4A8024E4051460002BFB
:104B60000DD001221343094A094CD461094C5C4021
:104B70001462516293620021FFF7AEFF10BD034B38
:104B80000022DA61F7E7C04600B00540008005402A
:104B9000D3C007B02D3FF84F064BAA2212011A606E
:104BA0002F22DA60044B054A1A60024B5B68002B27
:104BB000FBDA7047004002400060024000B0FA009B
:104BC000704710B5002802D00B684968984710BD9F
:104BD0000100002007E083001B185B00501C0860E8
:104BE0001078C01830380A681378303BDBB2092BD4
:104BF000F1D97047F0B5DE4657464E464546E0B51A
:104C000083B093461F000C9B9A460D9C0E9B9946C1
:104C10000F9B9B0703D0B8460F00060022E00192CD
:104C2000A34688464E46B9460700B44207D2551CF3
:104C30004B4641462020B84701342A00F5E73D00A5
:104C40004F465C46019B9B46B1464646B8463700F8
:104C50002E0007E0013C551C5346185D43463900C1
:104C6000B0472A00002CF5D135003E0047460F9B87
:104C70009B0707D4100003B0F0BCBB46B246A94660
:104C8000A046F0BDB0464E46B9462F005D46531BC8
:104C9000B342EFD2541C4B4641462020B847220075
:104CA000F5E7F0B5CE46474680B585B094469846C0
:104CB0000C9D0D9C0EAB1B789946109A119B129E71
:104CC000B7071CD4002B0CD0F7070AD54F46002F8E
:104CD00002D10C37374204D0013B02E030272F5578
:104CE0000134944201D21F2CF8D9F70707D59C4212
:104CF00005D21F2C03D830272F550134F5E7F706CE
:104D000015D5770505D4002C03D0944224D09C42BD
:104D100022D00F9A102A2BD00F9A102A30D00F9A37
:104D2000022A35D01F2C02D830222A5501341F2CDC
:104D300005D84A46002A31D02D222A55013403963F
:104D400002930194009543466246FFF753FF05B076
:104D5000C0BCB946B046F0BD621E012C06D00F9F04
:104D6000102F01D01400D4E7023CD2E71400D0E7A2
:104D7000B206D1D41F2CCFD878222A550134D1E7DE
:104D8000B206CCD51F2CCAD858222A550134C9E7FF
:104D90001F2CC7D860322A550134C3E7720703D5E8
:104DA0002B222A550134CAE73207C8D520222A55BA
:104DB0000134C4E7F0B5DE4657464E464546E0B5F9
:104DC00093B081468A46089209931CAB10CB1B789E
:104DD0009B461E9D219B9846002C03D110234246E2
:104DE0009A4390468023DB0046461E4042461A42C4
:104DF00012D0002C22D000260EE03031CBB2771C2E
:104E00000AAA93552900200000F0ECFFAC4216D30B
:104E10001F2F14D83E0004002900200000F0E2FFFC
:104E2000C9B20929E9D943469B0605D541235B1838
:104E3000DBB20A3BDBB2E2E76123F8E72700434637
:104E40000693209B05931F9B049303955B46029357
:104E500001970AAB0093099B089A51464846FFF711
:104E600020FF13B0F0BCBB46B246A946A046F0BD39
:104E7000F0B5DE4657464E464546E0B595B008903B
:104E800009910A920B931E9E1F9C20AB1B789B4698
:104E9000229B9946239D269B9A463300234303D1A8
:104EA000103352469A4392468023DB0057461F40F8
:104EB00052461A4219D0330023432DD0002714E064
:104EC0003032D3B27A1C90460CAAD3554A462B00F6
:104ED0003000210000F0C8FFA5421FD819D043467A
:104EE0001F2B1BD8474606000C004A462B003000FB
:104EF000210000F0B9FFD2B2092AE1D953469B063E
:104F000005D541239B18DBB20A3BDBB2DAE761230C
:104F1000F8E7B145E3D901E00023984653460693EC
:104F2000259B0593249B04934B4603935B46029376
:104F3000434601930CAB00930B9B0A9A099908987E
:104F4000FFF7AFFE15B0F0BCBB46B246A946A0467F
:104F5000F0BD0000F0B5DE4657464E464546E0B58A
:104F600091B083468A460C9298461A9C08941B9DE1
:104F7000099522002B002000290001F010FA0028DA
:104F800000D0E5E001225242D74B2000290001F079
:104F900001FA002800D0DBE001225242D34B20006E
:104FA000290001F0E1F9002800D0D1E0002200231F
:104FB000089E3000099D290001F0D6F9002800D094
:104FC000DDE0089A099B069207938023DB001E9A76
:104FD0001A400D921E9A1A4201D106231C9306987C
:104FE000079904000D000A000600024300D1D1E039
:104FF000080D4005400DBE4CA44660440A03120B48
:10500000BC4B13431F0001F0DDF9BB4ABB4B01F061
:1050100068F9BB4ABB4B01F03DF904000D000022CA
:10502000B94B3000390001F02CF9B84AB84B01F007
:1050300058F902000B002000290001F02BF901F0C3
:10504000D9F9814601F0BEF904000D00B14AB24B16
:1050500001F047F90022B14B01F01CF901F0CAF947
:105060000600AF4AAF4B2000290001F03AF90400D6
:105070000D00300001F0A6F9AB4AAC4B01F031F95C
:1050800002000B002000290001F0FBF804000D00D5
:1050900002000B0001F025F90A900B91A44BF318C4
:1050A00000261F0522002B002000290001F0F2F845
:1050B0000E900F9122002B0000208021C90501F0E5
:1050C000E0F804000D0000229A4B0A980B9901F0B9
:1050D000EAF80022984B01F0DDF802000B000A9874
:1050E0000B9901F0E0F80022944B01F0D3F8020094
:1050F0000B000A980B9901F0D6F802000B00200073
:10510000290001F0C7F802000B000E980F9901F07A
:10511000CAF80022774B01F0BDF832003B0001F0E5
:10512000E0F806000F0004000D00069A079B01F04E
:1051300031F9002830D001235B429C46E144002233
:105140007D4B3000390001F0AEF804000D0023E083
:105150001E9B04931D9B03931C9B0293089A099B1F
:105160000092019343460C9A5146584600F0FCF8D1
:1051700011B0F0BCBB46B246A946A046F0BD002324
:10518000002406930794069680231B069C466544DC
:1051900007951AE7002399464B466333C62B1ED862
:1051A00004261E9B1B0526D52B0023430FD0644AE3
:1051B000644B0698079901F0E5F8002879D00022A1
:1051C000614B0698079901F0CFF8002871D01C9B1D
:1051D0004B4506DD4A469B1A013B1C9303E005261E
:1051E000DFE700231C938023DB001E9A1A431E92E4
:1051F0000026002399461D9B9E4264D29F1B0223DA
:105200001E9A1A400A921E9A134202D0002E00D013
:1052100000274B46002B07D022002B000698079949
:1052200001F041F80690079100220023089809999F
:1052300001F09AF8002848D1444B1E9A1340049379
:1052400003971C9B0293069B079C00930194434683
:105250000C9A5146584600F087F8002E00D187E797
:105260001E9B9B063DD54525441C434602005146E6
:105270002800D8474A46D317D2185A400523059329
:10528000013E0496002303930A3302934B46DB0F3F
:10529000019300924346220051465846FFF78AFD8B
:1052A0000A9B002B00D163E702005F460C9E1D9D08
:1052B00054E01C9B002B9ED00D9B002B9BD01C9B75
:1052C000013B1C9397E7002799E7069C079D220066
:1052D000290080200006844661440B000692079353
:1052E000AAE76525C0E7C046FFFFEF7FFFFFEFFF9E
:1052F00001FCFFFF0000F03FFB799F501344D33FB8
:10530000B3C8608B288AC63F0000F83F61436F63D3
:10531000A787D23F71A379094F930A400000E03F6D
:105320001655B5BBB16B0240EF39FAFE422EE63F8F
:10533000FF03000000002C40000024400000184043
:105340002D431CEBE2361A3F80842E41FFF7FFFF0E
:10535000541C434651462020B8472200931BAB42C1
:10536000F6D3100004E7C046F0B5DE4657464E4679
:105370004546E0B595B00690079193469946209F23
:105380001E9A1F9B1000190001F009F8002831D166
:1053900001225242BF4B1E981F9900F0E5FF0028E2
:1053A00037D101225242BC4B1E981F9900F0F2FFE8
:1053B00000283DD10022B94B1E981F9900F0EAFF4A
:1053C000002850D10022B64B1E981F9900F0CCFF48
:1053D000002848D1002200231E981F9900F0C4FF26
:1053E000002850D100239846229B5B0500D4B6E0EC
:1053F000002458E0229B0393219B029303230193F3
:10540000A84B00934B465A4607990698FFF7F2FBC4
:105410000EE1229B0393219B029304230193A24B51
:1054200000934B465A4607990698FFF7E3FBFFE0C7
:105430000423229A1A4022990B4210D09B4B002A37
:105440000FD0042222990391219902910192009395
:105450004B465A4607990698FFF7CCFBE8E0944B79
:10546000EDE70322EEE7229B0493219B039302972F
:105470001E9B1F9C009301944B465A460799069821
:10548000FFF768FDD4E01E9A1F9B0020002100F06A
:10549000F8FE1E901F9101239846A5E70CAB302221
:1054A0001A55013F01341F2C01D8092FF6D81E9838
:1054B0001F9900F09FFF050000F084FF02000B0021
:1054C0001E981F9900F0DDFE7A4BFA009B181A68AF
:1054D0005B680A920B9300F004FF0890099100F0BA
:1054E000ADFF060000F06AFF02000B000898099962
:1054F00000F0C7FE0890099100226F4B00F04AFFB0
:1055000000282ED00136300000F058FF02000B00BA
:105510000A980B9900F02EFF002801D001350026D3
:10552000002F2CD1280000F04DFF02000B001E9828
:105530001F9900F0A6FE06000F0000225E4B00F04F
:1055400013FF002846D100225B4B3000390000F0E9
:1055500021FF00283ED1EB073CD501353AE0062774
:1055600046E70022544B0898099900F0FDFE0028F8
:10557000D6D1002E01D0F307D2D50136D0E7AA4606
:105580001F2C11D8013F0A21300000F02BFC651CB4
:1055900030310CAB19550A21300000F023FC092EE4
:1055A0000ED906002C00EBE755461F2C0CD87B1EAD
:1055B000002F09D00CAA302111551F000134F4E747
:1055C0002B0055461C00F0E71F2C03D80CAB2E22F5
:1055D0001A5501341F2C10D80A21280000F0DAFBDC
:1055E000661C30310CAB19550A21280000F0D2FBA3
:1055F000051E01D03400EDE734000323229A134046
:10560000012B1CD01F2C06D84346002B32D00CABEC
:105610002D221A550134229B0393219B029301945E
:105620000CAB00934B465A4607990698FFF7E2FAEF
:1056300015B0F0BCBB46B246A946A046F0BD219BC2
:10564000002B13D04346002B02D10C3313420FD052
:10565000219B013B2193190003E00CAB30221A552A
:1056600001348C42CED21F2CF7D9CBE72199F8E731
:105670002199F6E7229B5B0704D50CAB2B221A5528
:105680000134C8E7229B1B07C5D50CAB20221A5555
:105690000134C0E7FFFFEFFFFFFFEF7F65CDCD4196
:1056A00065CDCDC1C0BC0010C4BC0010B4BC00109E
:1056B000BCBC001068BE00100000E03FF0B5DE4644
:1056C00057464E464546E0B593B082468B469046D7
:1056D0001193002900D100E300275446119B18784C
:1056E000002800D1FCE2252809D07D1C43463A0061
:1056F0005946A047119B013311932F00EEE7013368
:1057000011930025119A11780B00203BD8B2102874
:1057100003D88300C248C3589F460B00303BDBB21E
:10572000092B2CD92A292FD000230A93119B1A78F0
:105730002E2A39D000239946119A1378683BD9B2A2
:10574000122976D88B00B749CB589F4601231D43B9
:1057500001321192D6E702231D4301321192D1E7A3
:1057600004231D4301321192CCE708231D4301326B
:105770001192C7E710231D4301321192C2E711A80D
:10578000FFF726FA0A90D1E71C9B1A1D1C921B6892
:10579000002B04DB0A93119B01331193C6E702220D
:1057A00015435B420A93F6E78022D20015435A1C48
:1057B00011925A781300303BDBB2092B04D92A2A04
:1057C00007D000239946B7E711A8FFF701FA8146F1
:1057D000B2E71C9B1A1D1C921B68002B04DB994628
:1057E000119B01331193A7E70023F8E780235B00A7
:1057F0002B43511C119152786C2A01D01D0018E0E6
:10580000C0239B001D430131119112E080232B43E3
:10581000511C11915278682A01D01D0009E0C02363
:105820001D430131119104E080235B001D430132CF
:105830001192119B1878672816D8252826D30300C3
:10584000253BDAB2422A21D89300774AD3589F46A3
:1058500080239B001D4301321192EAE780235B0005
:105860001D4301321192E4E778280FD869280DD33F
:105870000200693AD2B2012393406C4A13420FD11D
:105880001A0600D503E25B0500D594E17D1C434672
:105890003A005946A047119B013311932F001DE791
:1058A000782809D0622838D06F2838D0582838D0C6
:1058B00010239D430A2600E01026582833D069287B
:1058C00003D0642801D00C2295436A0501D501223A
:1058D000954369282AD0642828D0AA0500D5A7E0D6
:1058E000EA0500D5C0E06A0600D4D2E01C9A111D7A
:1058F0001C911168FF220A4005950A9B04934B46B0
:105900000393029600230193009243463A005946BE
:105910002000FFF74FFA070027E00226CDE7082610
:10592000CBE71026C9E720221543C8E7AA0520D4F3
:10593000EA0550D46A0666D51C9A111D1C9111689F
:10594000FF220A40D0171118414005950A9B049385
:105950004B4603930296D20F0192009143463A00C0
:1059600059462000FFF726FA0700119B01331193D7
:10597000B4E61C9A073207218A43110008311C91B2
:10598000116853689C46DB170C930D930C9A0D9B82
:10599000100048400E90624653400F930E980F99A6
:1059A0000C9A0D9B801A99410E900F9108950A9BB5
:1059B00007934B4606930496002305936346DA0F3C
:1059C00002920090019143463A0059462000FFF7A9
:1059D0004FFA0700C9E71C9A111D1C911268D017D5
:1059E0001118414005950A9B04934B460393029678
:1059F000D20F0192009143463A0059462000FFF72A
:105A0000D9F90700B1E72A0605D51C9A111D1C918A
:105A10000023D25E96E71C9A111D1C91126891E733
:105A2000CCBC001010BD00105CBD00104190000007
:105A30001C9A073207218A43110008311C910895EE
:105A40000A9B07934B460693049600230593029303
:105A5000536812680092019343463A005946200069
:105A6000FFF706FA070080E71C9A111D1C910595A7
:105A70000A9B04934B4603930296002301931368F9
:105A8000009343463A0059462000FFF793F9070078
:105A90006BE72A0606D51C9A111D1C911268120488
:105AA000120C29E71C9A111D1C91126824E7462844
:105AB0001AD01C9B0733072293431A0008321C920A
:105AC00004950A9A03924A4602921A685B68009209
:105AD000019343463A0059462000FFF745FC070072
