:020000041000EA
:1000000000B5324B212058609868022188439860DF
:10001000D860186158612E4B002199600221596106
:100020000121F02299502B49196001219960352056
:1000300000F044F80222904214D00621196600F024
:1000400034F8196E01211966002018661A6600F04E
:100050002CF8196E196E196E052000F02FF8012189
:100060000842F9D1002199601B49196000215960AB
:100070001A491B48016001219960EB211966A021F2
:10008000196600F012F800219960164914480160C1
:100090000121996001BC002800D000471248134993
:1000A000086003C880F30888084703B5996A0420EC
:1000B0000142FBD001200142F8D103BD02B5186610
:1000C0001866FFF7F2FF186E186E02BD00000240BE
:1000D000000000180000070000035F00212200005C
:1000E000F4000018222000A00001001008ED00E03C
:1000F00000000000000000000000000074B24E7A12
:1001000000200420F7010010C3010010C5010010F9
:10011000C1010010C1010010C1010010C101001097
:10012000C1010010C1010010C1010010C701001081
:10013000C1010010C1010010C9010010CB01001065
:10014000CD010010CD010010CD010010CD01001037
:10015000CD010010CD010010CD010010CD01001027
:10016000CD010010CD010010CD010010CD01001017
:10017000CD010010CD010010CD010010CD01001007
:10018000CD010010CD010010CD010010CD010010F7
:10019000CD010010CD010010CD010010CD010010E7
:1001A000CD010010CD010010CD010010CD010010D7
:1001B000CD010010CD010010CD010010CD010010C7
:1001C00000BE00BE00BE00BE00BE00BE00F04BF888
:1001D000103800BEF2EB8871F0C7001024C8001080
:1001E0003402001090A31AE700202149086006C8D5
:1001F00081F3088810471F48006800282FD10DA4FC
:100200000ECC002902D000F012F8F9E71A491B4A77
:10021000002000E001C19142FCD1194988471949E9
:1002200088471949884700BEFDE701C901C29A42C3
:10023000FBD3704724C80010C000002054050020E4
:10024000B8CC00100000042000000420B8CC00103E
:1002500000100420001004200000000070470B482C
:1002600005F0D6FC0047EFF30580C0B270470000F0
:1002700008ED00E0000000D05805002054210020C7
:100280003D45001049030010F94400105756000086
:1002900006005250ABB3605358BF001006005250D6
:1002A000861C030268BF0010060052505422A29D13
:1002B00078BF001005005250DE65F468B8CC00101D
:1002C000F8B5C04610B5064C2378002B07D1054B76
:1002D000002B02D0044800E000BF0123237010BDB2
:1002E000600600200000000010AA0010044B10B5AA
:1002F000002B03D00349044800E000BF10BDC046F6
:10030000000000006406002010AA0010F0B5C646E8
:1003100000B584B004000E0017001D0003F052FA6F
:100320008046E117FA2292000023200006F03CFFED
:1003300002000B00029501970096404603F088FBEF
:1003400004B080BCB846F0BD10B58CB0FA204000B7
:1003500003F076FC07F058FA01F012F801F04AF9C0
:1003600001F026F901F0DCFB01F054FD01F0B6FDCF
:1003700006AB00220D499620FFF7C8FF6B4600220E
:100380000B496420FFF7C2FF0A4C23000122082119
:100390000E2002F03BFA2300012208210F2002F078
:1003A00035FA00F0A9FF02F0A1F9FCE7591E001090
:1003B0006117001099150010F0B5174B19685868AF
:1003C000C200121A93008A01521A94001B19134A90
:1003D000D3185B69642B00D0F0BDC200121A9300E1
:1003E0001B190E4AD3189B69642BF5D11500C40064
:1003F000221A93008A01571ABE009B19EB18084E67
:1004000036685E61201A8300BA009B18ED18054B10
:100410001B68AB61E0E7C0462C0C002000100020F8
:10042000200400202404002010B5084B1B68132B67
:1004300008D00133054A1360054ADB009850D318F1
:10044000596010BD034807F0A1F9FAE7280400201D
:100450001C0D002010AA001010B50400094B1B68E9
:100460005A1C0BD0591E074A1160023BDB00064A9A
:10047000D318020003CB03C2200010BD034807F0CD
:1004800085F9F9E7280400201C0D002020AA00109F
:1004900010B50400074B1A68531C07D0D200064B56
:1004A0009B18020003CB03C2200010BD034807F0D5
:1004B0009FF9F9E7280400201C0D002020AA001055
:1004C00010B50D4B1B6800E0013B002B0CDBDA0084
:1004D0000A4C12598242F7D1DC00084A12195268BC
:1004E0008A42F1D1012300E00023002B00D010BD8F
:1004F000FFF79AFFFBE7C046280400201C0D0020F0
:1005000010B50C00474906F0C3FE002844D0022C69
:1005100033D012D8002C21D0012C2DD1424B196898
:100520005A68D3009B1A9B008A01521A92009B18AA
:100530003E4AD3180122DA601EE0032C1CD13A4B4C
:1005400019685A68D3009B1A9B008A01521A9200BC
:100550009B18364AD31801221A610DE0324B1968F4
:100560005A68D3009B1A9B008A01521A92009B186A
:100570002E4AD31801225A6010BD2B4B19685A68B5
:10058000D3009B1A9B008A01521A92009B18274A9B
:10059000D31801229A60EFE7022C33D012D8002C36
:1005A00021D0012CE8D1204B19685A68D3009B1A3E
:1005B0009B008A01521A92009B181C4AD3180022F1
:1005C000DA60D9E7032CD7D1174B19685A68D300E2
:1005D0009B1A9B008A01521A92009B18134AD31847
:1005E00000221A61C8E7104B19685A68D3009B1A99
:1005F0009B008A01521A92009B180C4AD3180022C1
:100600005A60B9E7084B19685A68D3009B1A9B00D7
:100610008A01521A92009B18044AD31800229A6049
:10062000AAE7C046000058412C0C00200010002012
:1006300010B5016042600376014807F0D9F810BD9B
:1006400030AA0010F0B5C64600B54B4B1B7E022BFE
:1006500000D16DE024D8002B43D0012B65D1464B4F
:1006600018685D68EC00611B8A0081010F1ABE00EA
:100670009046B04447460837404EBF193A1D9A602D
:10068000DF604246921904321A61424610329219D2
:100690005A6102229A7600225A760332DA7644E0D0
:1006A000032B42D134490C684D68EB00581B820083
:1006B000A001071BBE009219170010372F4EBF195B
:1006C0008F6097190437CF60083292190A611300BE
:1006D00004334B6100238B7602334B76013BCB76A0
:1006E00023E0254A10685568EC00611B8B008101EE
:1006F0000F1ABE009B19214E9F19043797601F00E7
:100700000837BF190437D76010339B191361641B76
:10071000A300091A88001B1808339B195361012391
:10072000937602335376013BD37680BCB846F0BD56
:10073000114B18685C68E700391B8A008601351A7E
:10074000A9005218110008310C4D49199960103256
:100750005219DA60043119613C1BA200301A810081
:100760005218521904325A6103229A76023A5A7682
:100770000022DA76D9E7C0462C0C002000100020B9
:1007800070B588B0022853D01CD800283AD0012870
:1007900015D1344B18685968013101ACCB005B1A94
:1007A0009B008201121A92009A182F4B9B1822006C
:1007B00070CB70C270CB70C21B6813601CE000214C
:1007C000080019E0032815D1264B1868596801392B
:1007D00001ACCB005B1A9B008201121A92009A189E
:1007E000214B9B18220070CB70C270CB70C21B686B
:1007F000136001E00021002001AB1B78DB072DD541
:1008000008B070BD174B1A68501E596801ACCB0078
:100810005B1A9B008201121A92009A18124B9B18C5
:10082000220070CB70C270CB70C21B681360E3E70C
:100830000C4B1A68501C596801ACCB005B1A9B002A
:100840008201121A92009A18074B9B18220070CB53
:1008500070C270CB70C21B681360CDE7FFF730FE2B
:10086000CEE7C0462C0C00200010002010B50C4A2A
:10087000136852685C1E844209D00133834208D059
:10088000531C8B4207D0013A8A4206D010BD00208B
:10089000FCE70220FAE70120F8E70320F6E7C0466C
:1008A0002C0C002002280AD005D8002809D00128E5
:1008B00000D1002070470328FCD10220FAE7012074
:1008C000F8E70320F6E702280AD005D8002809D067
:1008D000012800D1022070470328FCD10020FAE74C
:1008E0000320F8E70120F6E702280AD005D80028FF
:1008F00009D0012800D1032070470328FCD1012032
:10090000FAE70020F8E70220F6E70000F0B5C64657
:1009100000B510210A2001F01DF9051C11210B2042
:1009200001F018F9804613210D2001F013F9071C7E
:1009300012210C2001F00EF9061C291C622000F087
:1009400031FD0E4C217E281CFFF7DAFD207EFFF7DB
:10095000BAFF01004046FFF7D3FD207EFFF7A2FF5C
:100960000100381CFFF7CCFD207EFFF7BDFF010022
:10097000301CFFF7C5FD80BCB846F0BD2C0C002034
:1009800010B5254B19685868C200121A93008A01E5
:10099000521A94001B19214A9B5CDB0700D510BD3D
:1009A0001400C300181A83008A01511A8A009B1888
:1009B0001A5D01210A431A55194A1368013313605D
:1009C000FFF7A4FFFFF73EFE134B5B691B68012B8B
:1009D00013D0114B1B691B68012B13D00E4BDB6826
:1009E0001B68012B13D00C4B9B681B68012BD6D1C5
:1009F000094B187EFFF7C4FED1E7074BD87EFFF7FF
:100A0000BFFEE6E7044B587EFFF7BAFEE6E7024B6F
:100A1000987EFFF7B5FEE6E72C0C002000100020C2
:100A2000301E0020F8B504000E001700234B1D7E79
:100A300085420ED0FFF758FF854214D02800FFF7FB
:100A400042FFA04219D02800FFF72CFFA04224D07B
:100A5000F8BD1B4800F090FF1848037E3A003100B3
:100A6000FFF7E6FDF4E7164800F0C6FF1348037EE3
:100A70003A003100FFF7DCFDEAE700F057FF1048CD
:100A800000F07AFF0D4C207EFFF71DFF03003A00B7
:100A900031002000FFF7CCFDDAE700F021FF084825
:100AA00000F06AFF054C207EFFF7FCFE03003A00D1
:100AB00031002000FFF7BCFDCAE7C0462C0C002027
:100AC0000000D84170B50C4B1D680C4B1E680C48DB
:100AD000F3009A1B9200A9014C1BA4001219821862
:100AE0005469956929002000FFF7C0FE2A00210003
:100AF000FFF798FF70BDC0462004002024040020AA
:100B00000010002010B592B05A4A14685A490C607F
:100B100051685A4A1160013C02A8FFF7B9FC029BD8
:100B20009C421CD0544B1C68013406A8FFF7B0FC53
:100B3000069B9C4234D00AA8FFF7AAFC4E4B1B68C8
:100B40000A9A9A424DD00EA8FFF7A2FC4A4B1B68A6
:100B50000E9A9A4269D0FFF7B5FF12B010BD04A8F3
:100B6000FFF796FC059B454A12689342DAD1424B47
:100B70001968D000801A83008801401A84001B196C
:100B80003F48C3185B68012B02D0FFF79BFFE4E7E7
:100B900001390020FFF746FF6846FFF75DFCDCE700
:100BA00008A8FFF775FC099B344A12689342C2D12A
:100BB000314B1968D000801A83008801401A8400E4
:100BC0001B192F48C3189B68012B02D0FFF77AFF2F
:100BD000C3E701310220FFF725FF6846FFF73CFC21
:100BE000BBE7264B1C6801340CA8FFF751FC0D9B9A
:100BF0009C42A8D1204B1968204B1A68D000801A5B
:100C000083008801401A84001B191D48C318DB6843
:100C1000012B02D0FFF756FF9FE701320120FFF7BB
:100C200001FF6846FFF718FC97E7144B1C68013C6E
:100C300010A8FFF72DFC119B9C4200D08BE70E4BB8
:100C400019680E4B1A68D000801A83008801401A78
:100C500084001B190A48C3181B69012B02D0FFF737
:100C600031FF7AE7013A0320FFF7DCFE6846FFF721
:100C7000F3FB72E72C0C0020200400202404002049
:100C800000100020F0B5D6464F464646C0B5324B60
:100C90001B689946013B5A1C12DB5A1C0ED02E4A87
:100CA0005268D100891A8A009901C91A880012185D
:100CB0002A49525CD20701D5013BECE701339C463F
:100CC000254B5B689846013B5A1C12DB5A1C0ED020
:100CD000D900C91A8A00494689014846091A88007C
:100CE00012181E49525CD20701D5013BECE70133D3
:100CF0009A4600251EE063465E1953465F18CA00F7
:100D0000521A94008C236B43E418F800C01B820035
:100D1000B3019B1B98001018114B1B190F4A121896
:100D200051CA51C351CA51C312681A600131042912
:100D3000E1DD0135032D01DC0021F8E7064B4A46D1
:100D40006146561A1E6042465146571A5F60E0BC23
:100D5000BA46B146A846F0BD2C0C00200010002079
:100D6000D00D0020F0B5DE4657464E464546E0B56C
:100D700083B080460023554A1360554A1360554A94
:100D80001360554A1360554A1370554A136000208A
:100D90000EE083001B185B001B185249C918002481
:100DA0008C545149CB189C5401320A2AF1DD013090
:100DB000082801DC0022F8E7002306E04B4AD900AE
:100DC00054180020606088500133592BF6DD002351
:100DD00000936EE00133042B68DC009D69004C1C1D
:100DE0005800421C93463F4A9446EA00521852006B
:100DF0005218624401251554861C019695558F1C86
:100E0000BA00D2195200D2196244155495558C2259
:100E1000009D6A434244DD00ED1AAD00AC469444A7
:100E200065466D68002D0ED18D00AC468C4465463C
:100E30006D00AC4661442B4DAC4661440125AC4687
:100E40005D4666464E55D900C91A89005118896811
:100E500000290BD1B900C9194900C919214DA9466A
:100E600049440125AC465D4666464E55D900C91A2F
:100E700089005118C968002907D1A1000919490042
:100E80000919184F791801270F54D900C91A890078
:100E900052181269002A9DD1A20012195200141989
:100EA000104A141901220199625493E7009B0133FF
:100EB0000093009B032B01DC00238CE703B0F0BC04
:100EC000BB46B246A946A046F0BDC0464C0C002029
:100ED000480C0020180D0020140D00204C2100208B
:100EE000F00A0020C81D0020CC200020F81A0020A5
:100EF00010B540000130074C206049000131064820
:100F000001605200013205490A605B000133044A66
:100F1000136010BD4C0C0020480C0020180D002060
:100F2000140D002010B5082A0FD80A2B0FD89400F2
:100F3000A4186400A2188018C05C012809D08A187F
:100F4000D35C002B07D1012000E0002010BD002061
:100F5000FCE70020FAE70020F8E70000F8B5CE46ED
:100F6000474680B580460E0014001D003F4B1B68AD
:100F7000934239D0A200121952001219B21801235B
:100F80005355631E99462B004A4631004046FFF7F1
:100F9000C9FF002840D1002F09D1631C99462B00BE
:100FA0004A4631004046FFF7BDFF00283CD1002FE4
:100FB00008D16B1E9946220031004046FFF7B2FF70
:100FC000002839D1002F08D16B1C9946220031002E
:100FD0004046FFF7A7FF002836D1002F3CD138004C
:100FE000C0BCB946B046F8BD214B1B68AB42C1D16D
:100FF00020490B68204AD8008450121855600133EC
:101000000B60A200121952001419361901237355EE
:101010001A4A13700127E2E72B004A463100404686
:10102000FFF79CFF0700B6E72B004A463100404619
:10103000FFF794FF0700BAE74B4622003100404615
:10104000FFF78CFF0700BDE74B462200310040460A
:10105000FFF784FF0700C0E706490B68064AD8007F
:1010600084501218556001330B60B8E7180D00204A
:10107000140D0020F00A0020F81A00204C21002056
:10108000F8B50E001500002800D1D5E06C4806F038
:10109000AFFB691E6B4806F0ABFB002410E06A4B07
:1010A000EB18DB00F3181A685968684806F0A0FBD3
:1010B000674B1A68674B1968674806F099FB01345B
:1010C000AC4200DBBBE0002CE9D02B1B5E4A981839
:1010D000C00030180168DB00F3181A68571CB942C9
:1010E0001FD0013A914243D042685B68591C8A4242
:1010F00065D0013B9A42E2D1584806F079FB584B43
:101100001B7E002B00D181E0022B00D184E0032B59
:1011100000D187E0012B00D188E0514B03221A76E1
:10112000CDE7504806F064FB4D4B1B7E002B09D0E9
:10113000022B0DD0032B0FD0012B13D0484B0222D2
:101140001A76BCE700F0A6FB474800F015FCF5E76F
:10115000454800F011FCF1E700F0C2FB424800F006
:101160000BFCEBE700F0E2FB3F4800F005FCE5E795
:101170003E4806F03DFB3A4B1B7E002B09D0022B6C
:101180000BD0032B0FD0012B13D0354B00221A7636
:1011900095E7354800F0F0FBF7E700F07BFB3248BD
:1011A00000F0EAFBF1E700F0C1FB2F4800F0E4FBA0
:1011B000EBE700F095FB2C4800F0DEFBE5E72C4860
:1011C00006F016FB264B1B7E002B09D0022B0DD000
:1011D000032B11D0012B15D0214B01221A766EE77B
:1011E00000F0A4FB204800F0C7FBF5E700F078FB17
:1011F0001D4800F0C1FBEFE700F04CFB1A4800F07F
:10120000BBFBE9E7184800F0B7FBE5E700F068FB37
:10121000154800F0B1FB80E700F088FB124800F0B1
:10122000ABFB7AE7104800F0A7FB76E700F032FB53
:101230000D4800F0A1FB70E70E4806F0D9FAF8BDA2
:101240003CAA00104CAA0010FFFFFF1F60AA00106C
:10125000180D0020140D002080AA0010B4AA001060
:101260002C0C0020A0AA001000005841A8AA0010D1
:10127000ACAA0010BCAA001010B5134B1B78002BB1
:101280001ED0124B1B78124A12781248016840682F
:10129000FFF72EFE1048FFF765FD104B1B68104A44
:1012A000126810491048FFF759FE104B1A68104B8E
:1012B00018781049FFF7E4FE034B00221A7010BDA6
:1012C00000F0CAF8FBE7C0464B2100205221002065
:1012D000532100202C0C0020D00D0020140D0020E4
:1012E000180D0020CC200020C81D0020F00A00208E
:1012F0004C210020F81A002010B500240FE0D9007E
:10130000C91A8A00A001001B81005118174A5218FF
:101310006421516191610133082BF0DD0134062C09
:1013200001DC0023F8E70023042203211048FFF723
:101330007FF903E0FFF7E6FBFFF73EF8FFF720FB3E
:101340000C4B1B68132BF5DD142BF7D1FFF79AFC20
:101350000948FFF707FD002405E0084800F04CF8B5
:101360000134FFF789FF002CF7D0FAE700100020C6
:101370002C0C0020301E0020D00D0020C81D0020A5
:1013800010B5E1210902064803F074F80221042097
:1013900001F0B0F90221052001F0ACF910BDC04602
:1013A0000080034070B582B00E1C01AC2070081C98
:1013B00005F0CCFFC5B2280005F074FF011C301CFD
:1013C00005F00FFF0A4905F02CFF05F0BFFF65701F
:1013D000A070002108E0074B9B699B06FBD4207896
:1013E000044B1860013101340229F4D902B070BDF8
:1013F0000000C8420080034030B583B004006B4653
:10140000DA1D64231370002108E0124B9B699B06D0
:10141000FBD410780F4B1860013101320029F4D051
:1014200000250BE00B4B9B699B06FBD41078094B06
:101430001860013101320A29F4D90135082D06DC82
:10144000AA00521952005219A2180021F3E703B062
:1014500030BDC0460080034010B5134B9B6910217E
:101460000A001A4019421DD010BD0F4B9B69DB06C4
:10147000FBD40D4B1B680B7001320131012AF4D9EA
:101480000A4B19780A4A11705B780A4C23700A4B90
:1014900001221A70094806F0ABF92178084806F0D5
:1014A000A7F9E1E70149E9E7008003409C0C00202F
:1014B00052210020532100204B210020D0AA0010EF
:1014C000D8AA0010064A136801331360054A13684E
:1014D00001331360044A1368013313607047C04638
:1014E000581E0020A80C00205C1E0020044A13682F
:1014F00001331360034A1368013313607047C04619
:10150000EC1A0020F01A0020014B18687047C04602
:101510005C1E0020014B18687047C046F01A00207E
:10152000014B18687047C046581E0020014B1868D0
:101530007047C046EC1A002010B5024B186805F041
:10154000B1FE10BDA80C0020014B00221A607047AC
:10155000A80C0020014B00221A607047581E002082
:10156000014B00221A607047EC1A0020014B002248
:101570001A6070475C1E0020014B00221A60704701
:10158000F01A002010B5034905F035FE05F0ACFE59
:1015900010BDC0463B4E713F10B50E2802D00F283B
:1015A00003D010BDFFF78EFFFBE7FFF79FFFF8E7C3
:1015B00010B506F029F9192001F09CF9D024240671
:1015C00080239B0463620E2001F094F98023DB01E9
:1015D000A362002201210E2001F0A4F80F2001F0E7
:1015E00089F980231B02A362002201210F2001F050
:1015F00099F810BD10B5062001F07CF9072001F024
:1016000079F9082001F076F9092001F073F9D02367
:101610001B0640225A6240325A6280325A620132BC
:10162000FF325A6210BD000070B51F4E3080042199
:10163000002001F05FF8052003F016F91B4904F0C3
:101640003BFB05F02AFE051C05F080FEC4B220001D
:1016500005F028FE011C281C05F0C3FD8321C905E7
:1016600005F0DFFD05F072FEC3B220011843104CF7
:101670006060104B2361328853019B1A98008018D8
:10168000C000642104F018FB83B2013B9BB20A4AFC
:10169000106843401B041B0C084A13602268012396
:1016A0009343074A136070BD4421002040420F005D
:1016B00000000540E70300000C0005400C10054049
:1016C0000010054070B51F4E30800421012001F04C
:1016D00011F8052003F0C8F81B4904F0EDFA05F0F5
:1016E000DCFD051C05F032FEC4B2200005F0DAFD79
:1016F000011C281C05F075FD8321C90505F091FD2D
:1017000005F024FEC3B220011843104C6060104B5A
:101710002361328853019B1A98008018C00064210D
:1017200004F0CAFA83B2013B1B040A4A1068434022
:101730001B0C1B04084A1360226801239343074AC9
:10174000136070BD4421002040420F00000005409E
:10175000E70300000C0005400C1005400010054098
:10176000F0B5C64600B582B0FFF7DAFE05F09AFD87
:10177000051CFFF7DBFE05F095FD041C2C49281C19
:1017800005F039FD2B4905F04CFD051CFFF7E2FE85
:101790002749201C05F02FFD264905F042FD041CB9
:1017A000FFF7DEFE211C281C05F01BFD041C22494E
:1017B00005F01CFD80460021201C05F012FD071CD1
:1017C0001E49201C05F02DFD061C1B49404605F056
:1017D00028FD011C301C05F009FD061C1849381CA9
:1017E00005F01FFD011C301C05F000FD8046201C8B
:1017F00005F0C4FD06000F00281C05F0BFFD009099
:10180000019132003B000F4805F0F2FF0E4B1888A3
:1018100005F048FD414605F0E9FC05F097FD80B272
:10182000FFF750FF012002B080BCB846F0BDC046B3
:101830000000A041000070423333733F7B142E3E02
:10184000CDCC4C3EE8AA00104421002010B50A4C33
:10185000462323804620FFF7E7FE2088FFF732FF6C
:10186000D0231B0640229A6140325A6180329A612D
:101870000132FF325A6110BD44210020D0231B06E3
:1018800040229A6140329A6180329A610132FF327D
:101890009A61704710B5FFF769FEFFF7D7FFD023B5
:1018A0001B0640229A6140329A6180329A6101326D
:1018B000FF325A610020FFF705FFFFF725FE05F014
:1018C000F1FC03E0FFF720FE05F0ECFC034905F016
:1018D000D9FC0028F6D1FFF7D1FF10BD000014425B
:1018E00010B5FFF743FEFFF7B1FFD0231B064022E0
:1018F0009A6140329A6180329A610132FF325A61B4
:101900000020FFF7DFFEFFF7FFFD05F0CBFC03E053
:10191000FFF7FAFD05F0C6FC034905F0B3FC00280B
:10192000F6D1FFF7ABFF10BD0000A04110B5FFF7E7
:1019300023FEFFF78BFFD0231B0640229A61403223
:101940005A6180329A610132FF329A610020FFF7BA
:101950006BFEFFF7DFFD05F0A5FC03E0FFF7DAFD06
:1019600005F0A0FC034905F08DFC0028F6D1FFF737
:1019700085FF10BD0000A041F0B583B0051CFFF746
:10198000E3FD281CFFF7FEFD05F08CFC051C184E3E
:10199000462333804620FFF747FE3088FFF792FE4C
:1019A000D0231B0640229A6140325A6180329A61EC
:1019B0000132FF325A6110E0FFF7BEFD041C05F052
:1019C000DDFC06000F00281C05F0D8FC00900191FA
:1019D00032003B00074805F00BFF291C201C05F0D6
:1019E00051FC0028E8D1FFF749FF03B0F0BDC04625
:1019F0004421002000AB0010F0B583B0051CFFF7B8
:101A0000A3FD281CFFF7BEFD05F04CFC051C184E7D
:101A1000462333804620FFF707FE3088FFF752FE4B
:101A2000D0231B0640225A6140329A6180325A61AB
:101A30000132FF329A6110E0FFF77EFD041C05F0D1
:101A40009DFC06000F00281C05F098FC00900191F9
:101A500032003B00074805F0CBFE291C201C05F096
:101A600011FC0028E8D1FFF709FF03B0F0BDC04624
:101A70004421002000AB001070B582B00E0001249C
:101A80008440D0252D066C610A20002102F0ACF8BC
:101A9000AC61D0231B065B68F340DB07F9D502F08D
:101AA0006BF900900191002917DB00240025D02359
:101AB0001B065B68F340DB0715D501220023A41841
:101AC0005D410120002102F08FF8002D03D1EED1FD
:101AD0000F4B9C42EBD9002012E00E4B0E4A3F21E7
:101AE0000E4802F00DFD02F047F902000B1E09DB63
:101AF00000980199121A8B411000190005F030FC72
:101B000002B070BD034B044A3F21044802F0F8FCC8
:101B1000F465000018AB00108CAB001034AB001063
:101B200070B5002412E026000A36300000F0E2FE14
:101B300025001035280000F0DDFE01231900B1401A
:101B4000D02212065162AB4093620134032CEADDCD
:101B500070BD0000F8B507000E00002500240CE061
:101B600031003800FFF788FF0C4905F044FB011CE9
:101B7000201C05F03BFB041C0135092DF0DD084954
:101B8000201C05F038FB041C05F0F8FB02000B00DC
:101B9000044805F02DFE201CF8BDC0460000684238
:101BA000000020417CAB001000B585B003AA6B2378
:101BB0001380054B1868002300930233682108F056
:101BC0008BFE05B000BDC0462C04002070B586B069
:101BD00006000F226A443B2313700F4C20683A3BE7
:101BE0000093682108F078FE2068002300930633F4
:101BF00004AA682108F07CFE002308E05A0004AD26
:101C0000AC5C2402511C695C2143B1520133022BAC
:101C1000F4DD06B070BDC0462C04002070B51D0078
:101C200004AB00241C5F431A601B5843511A04F094
:101C30001BF8401900B270BD70B54642484204F02E
:101C40002BFB04000D00300004F026FB22002B00CB
:101C500004F0A2FB034A044B04F086FA04F070FB84
:101C600070BDC046F1D4C853FB21094010B505F042
:101C700085FB04F07BFB0022024B04F09CFA04F08D
:101C80005FFB10BD00003440F0B5D6464F464646D7
:101C9000C0B584B000239846002557E002A8FFF79E
:101CA00095FF5A235B429946C9277F000A26FF36D3
:101CB0006B460A20185E5A239A4600934B463A0018
:101CC0003100FFF7ABFF04B26B460C20185E5346A1
:101CD00000934B463A003100FFF7A0FF00B2644288
:101CE000404204F0D9FA06000F00200004F0D4FAB4
:101CF00032003B0004F050FB1C4A1D4B04F034FA48
:101D000004F01EFB05F03AFB04F030FB0022194BF7
:101D100004F051FA06000F00404605F02FFB320098
:101D20003B0004F021FA04F00BFB80462900124826
:101D300005F05EFD404605F021FB02000B000F4858
:101D400005F056FD01351E2001F07AFF96235B0059
:101D50009D42A3DB0A49404605F04DFA094B186045
:101D600004B0E0BCBA46B146A846F0BDF1D4C853B1
:101D7000FB21094000003440A4AB0010B8AB0010B8
:101D800000009643341E0020F0B5D6464F46464626
:101D9000C0B584B00023984600242CE002A8FFF7C9
:101DA00015FF5A235B429946C9256D000A27FF3764
:101DB0006B460A20185E5A239A4600934B462A0027
:101DC0003900FFF72BFF06B26B460C20185E534616
:101DD00000934B462A003900FFF720FF01B2300084
:101DE000FFF72AFFFFF742FF011C404605F0FEF90E
:101DF0008046013424B2132CD0DD0549404605F05D
:101E0000FAF904B0E0BCBA46B146A846F0BDC046F7
:101E10000000A04110B50E4B18680E4908F030FDC7
:101E20000321022000F066FC0321032000F062FC85
:101E300000220121022000F075FC00220121032074
:101E400000F070FCFFF7B0FEFFF71EFF10BDC046AC
:101E50002C040020801A060070B5FFF795FF1A4B7E
:101E6000196805F0BEF9061C05F088FA04000D009B
:101E7000164A174B04F0F8F9002808D0154B1868DB
:101E8000311C05F0FFF9002801D0124B1E600F4AEB
:101E90000F4B2000290004F0D1F9002807D00D4B8A
:101EA0001C680021201C05F0F3F9002801D1012055
:101EB00070BD211C6320FFF775FA064B00221A60E3
:101EC000054B00221A70F2E7341E00206666666633
:101ED0006666E63FE41600204921002010B508F0B0
:101EE00013FD1F211A2000F005FC002200211A20FA
:101EF00000F018FC00211A2000F0E4FC034B1B68E2
:101F0000E022D2011340024A136010BD00C0044019
:101F100000D0044070B500250024002303E00E5DCE
:101F2000D654013401331D2B05DCDE07F7D4465DA2
:101F3000D6540135F6E770BD10B50A2309E05A1EE4
:101F4000C45C0C498C5403E01A00153A082A0CD9D9
:101F50000133132B0DDC092BF1DD1A000A3A082A94
:101F6000F2D8C45C04498C54F2E7C45C03498C5435
:101F7000EEE710BD78200020040B0020C00D0020EB
:101F800070B506000D00074805F032FC002405E09E
:101F9000325D2100044805F02BFC0134AC42F7DB34
:101FA00070BDC046D0AB0010E4AB001030B50023CC
:101FB00000E00133934205DAC55CCC5CA542F8D061
:101FC000012000E0002030BD30B5D3B04FA8DF4B7A
:101FD0000200190030C930C2097811704CA91A00EA
:101FE0000C3230CA30C112780A7049A91A0018326E
:101FF00030CA30C112780A7046A91A00243230CA99
:1020000030C112780A7043A91A00303230CA30C188
:1020100012780A7040A91A003C3230CA30C11278D6
:102020000A703DA91A00483230CA30C112780A70CD
:102030003AA91A00543230CA30C112780A7037A94E
:102040001A00603230CA30C112780A7034A91A00FE
:102050006C3230CA30C112780A7031AA783312CB90
:1020600012C21B7813702EA9B94B1A1D30CA30C189
:1020700012780A702BA91A00103230CA30C11278B7
:102080000A7028A91A001C3230CA30C112780A70AE
:1020900025A91A00283230CA30C112780A7022A944
:1020A0001A00343230CA30C112780A701FA91A00DF
:1020B000403230CA30C112780A701CA91A004C3262
:1020C00030CA30C112780A7019A91A00583230CAC1
:1020D00030C112780A7016A91A00643230CA30C1B1
:1020E00012780A7013A91A00703230CA30C11278FF
:1020F0000A7010AA7C3312CB12C21B7813700DA980
:10210000944B1A00083230CA30C112780A700AA9FA
:102110001A00143230CA30C112780A7007A91A00A6
:10212000203230CA30C112780A7004A91A002C3249
:1021300030CA30C112780A7001AA383312CB12C2E9
:102140001B78137009228449FFF730FF002800D163
:10215000D3E0092280494CA8FFF728FF002800D1CE
:10216000D0E009227C4949A8FFF720FF002800D1D0
:10217000CCE00922784946A8FFF718FF002800D1D3
:10218000C8E00922744943A8FFF710FF002800D1D6
:10219000C4E00922704940A8FFF708FF002800D1D9
:1021A000C0E009226C493DA8FFF700FF002800D1DC
:1021B000BCE0092268493AA8FFF7F8FE002800D1E0
:1021C000B8E00922644937A8FFF7F0FE002800D1E3
:1021D000B4E00922604934A8FFF7E8FE002800D1E6
:1021E000B0E009225C4931A8FFF7E0FE002800D1E9
:1021F000CAE0092258492EA8FFF7D8FE002800D1CE
:10220000C6E0092254492BA8FFF7D0FE002800D1D0
:10221000C2E00922504928A8FFF7C8FE002800D1D3
:10222000BEE009224C4925A8FFF7C0FE002800D1D6
:10223000BAE00922484922A8FFF7B8FE002800D1D9
:10224000B6E0092244491FA8FFF7B0FE002800D1DC
:10225000B2E0092240491CA8FFF7A8FE002800D1DF
:10226000AEE009223C4919A8FFF7A0FE002800D1E2
:10227000AAE00922384916A8FFF798FE002800D1E5
:10228000A6E00922344913A8FFF790FE002800D1E8
:10229000A2E00922304910A8FFF788FE002800D1EB
:1022A0009EE009222C490DA8FFF780FE002800D1EE
:1022B0009AE0092228490AA8FFF778FE002800D1F1
:1022C00096E00922244907A8FFF770FE002800D1F4
:1022D00092E00922204904A8FFF768FE002800D1F7
:1022E0008EE009221C4901A8FFF760FE002800D0FB
:1022F0008AE01A4805F04AFA02E0194805F046FA61
:1023000053B030BD174805F041FAF9E7164805F01B
:102310003DFAF5E7154805F039FAF1E7144805F0FC
:1023200035FAEDE7134805F031FAE9E7124805F010
:102330002DFAE5E7114805F029FAE1E7104805F024
:1023400025FADDE70F4805F021FAD9E720AF0010A4
:10235000A0AF001020B00010040B0020CCAE001085
:10236000F4AB001010AC00102CAC001048AC001006
:1023700064AC001080AC00109CAC0010B8AC001035
:10238000D4AC0010F0AC0010214805F0FFF9B7E71D
:10239000204805F0FBF9B3E71F4805F0F7F9AFE770
:1023A0001E4805F0F3F9ABE71D4805F0EFF9A7E784
:1023B0001C4805F0EBF9A3E71B4805F0E7F99FE798
:1023C0001A4805F0E3F99BE7194805F0DFF997E7AC
:1023D000184805F0DBF993E7174805F0D7F98FE7C0
:1023E000164805F0D3F98BE7154805F0CFF987E7D4
:1023F000144805F0CBF983E7134805F0C7F97FE7E8
:10240000124805F0C3F97BE7114805F0BFF977E7FB
:102410000CAD001028AD001044AD001060AD0010F0
:102420007CAD001098AD0010B4AD0010D0AD001020
:10243000ECAD001008AE001024AE001040AE00104D
:102440005CAE001078AE001094AE0010B0AE00107C
:10245000E8AE001010B55B4B1B68834203DA5A4AA2
:102460001268002A0AD0834203DD574B1B68002BF9
:102470001AD1564B1C680F2C2CD010BD544A916AAF
:10248000544B1868091A54480160926A1A604F4AFE
:1024900013685248C154013313604B4B01221A6038
:1024A0004F4805F0A5F9E4E7494A916A494B186895
:1024B000091A49480160926A1A604A4A13684A48F0
:1024C000C15401331360404B00221A60474805F0A5
:1024D0008FF9CEE70023464A1360464A136009E0AD
:1024E0003E4AD25C44490868844662440A6001332B
:1024F000404A13603F4B1B689C42F1DC3E4B18681E
:102500000F2103F0B1FB3A4B18603A4B00221A60DE
:1025100005E03A4A0121D1540133364A1360354B64
:102520001B689C4207DD2D4AD25C9042F1DD334AA4
:102530000021D154F0E7324B1A682E4B1A6009E0A3
:10254000294AD25C2F490868844662440A600133F4
:10255000284A1360274B1B68224A1468A342EFDB0A
:10256000284B18680E2103F07FFB274B1860214B86
:1025700001221A6005E0254A0121D15401331D4A88
:1025800013601C4B1B689C4207DD174AD25C9042CB
:10259000F1DD1E4A0021D154F0E71D4C22001B49F9
:1025A0001648FFF7B7FC2000FFF7C6FC1E212000ED
:1025B000FFF7E6FCFFF708FD0023044A1360094A11
:1025C00013605AE73404002030040020200B002060
:1025D0000040054084200020A40C0020100B0020A7
:1025E00008AF0010402100203021002014AF00105F
:1025F000E40A0020E81A002090200020F40A0020BD
:102600003804002094200020EC0A002068200020DC
:10261000540C002010B5274B04221A60264B1B686F
:10262000DB05FBD5244B58680004000C234B1A68CB
:10263000944660441860224A136801331360FA22FA
:102640009200934219D000231C4A13601C4A136065
:10265000092200211B4804F081FF0F2200211A48A3
:1026600004F07CFF0F220021184804F077FF1E229F
:102670000021174804F072FF10BD164B1B68002B99
:1026800003D1154B9A6A134B1A60FA21890003F0A3
:10269000EBFA0400114B186003F0FEFD104A114BD9
:1026A00003F089FD03F04CFE0F4B18602000FFF78C
:1026B000D1FEC8E700E0044000C00440A82000208C
:1026C000D00A0020040B0020F40A0020682000201B
:1026D000540C00208420002000400540E80A00201F
:1026E000B4D934E70C684A3FA00C002010B5FFF7BE
:1026F00091FF10BD10B58300084A944663441C68DE
:1027000040226240C02414408022520113431C60C6
:10271000C000034B9C466044416010BD04C00140B2
:102720000040014080000B4B9C46604400290DD0C6
:102730000823002A0CD004221343026853400C22C1
:102740001340802252011043036070470023F0E7DA
:102750000022F1E704C0014070B50400D0231B063D
:102760001D68AA000C4BD358002B0AD0002803D0B8
:10277000AD00094BEC5070BD08490D2000F036FB50
:10278000F6E70028F7D0AD00034BE85000220349DC
:102790000D2000F013FAEEE7240C00202D28001085
:1027A000072303409B00C00899403C308000014B48
:1027B000C150704700400140F8B507000C001600FA
:1027C0001D00FFF7EDFFFB089B00ED1807203840C8
:1027D00080008440002E04D080239B011D432C6088
:1027E000F8BDC0239B011D432C60F9E710B5D02331
:1027F0001B061B68002B03D0024BFFF7DDFF10BD4B
:10280000014BFAE7304101400041014070B514002E
:102810001D00FFF7EBFF2800FFF79EFF002C00D103
:1028200070BD01210D2000F075F9F9E7F0B5D6462D
:102830004F464646C0B5D0231B061F68BA001D4B45
:10284000D3589846002F03D01B4B9946002623E00F
:102850001A4B9946FAE724090135002C1BD03300A6
:102860000833AB4217D90F231A0022409246234265
:10287000F1D0BB00124A9A580123AB401342EAD16F
:1028800051462800FFF78CFF4346002BE3D051460A
:102890002800C047DFE708361D2E06D8F3080833A6
:1028A0009B004A469C583500D7E7E0BCBA46B14683
:1028B000A846F0BD240C00203041014000410140F9
:1028C000481E0020002909D08000094B9C46604426
:1028D00080239B0118434023036070478000044B12
:1028E0009C466044C0239B01184340230360F4E7E7
:1028F00004C0014010B501238340D0221206936228
:1029000093610521FFF7F6FE10BD0000EFF3108084
:1029100072B6034B1B68002BFBD0BFF35F8F704771
:102920002C0100D0BFF35F8F024B00221A6080F3AE
:10293000108870472C0100D0F8B506000C00150077
:10294000FFF7E4FFE308F718F15C072222400123B8
:1029500093400B4205D1DBB20B433B70FFF7E2FF24
:10296000F8BD2100280001F065FEF0B583B0060037
:10297000019114001F00FFF7C9FF00E00134BC42C1
:102980000CD8E308F518F35C0721214001228A40A6
:102990001A42F3D1D2B21A432A7001E001246442F0
:1029A000FFF7C0FF002C02DB200003B0F0BD019B4D
:1029B000002BF9D0089801F03DFE0000034B1B6886
:1029C00002201840431E9841C0B2704700C0064024
:1029D000002307E0054A9A189200BFF35F8F002199
:1029E000116001331F2BF5D97047C04640000034F9
:1029F000054A1078431CDBB21370172B02D9130061
:102A000010221A707047C0463C04002000B583B005
:102A10000100044B00931F2318220348FFF7A5FF72
:102A200003B000BD64B00010500C0020074B9B6841
:102A3000103080001950BFF35F8FBFF35F8F044BDE
:102A40000021196082F310887047C04600ED00E055
:102A5000240100D010B5091A081F0A4B9C46614496
:102A6000094A914208D8C30706D440104005400DDA
:102A7000064B184380B210BD054B064A9921064803
:102A800001F03EFDFC070000FE0F000000E0FFFF2C
:102A900080B00010E0B20010B0B0001010B5091AFC
:102AA00004394C08090B08D14905490D064A114360
:102AB0000180064B2343438010BD054B054AA121ED
:102AC000054801F01DFDC04600F0FFFF00F8FFFFC4
:102AD000F0B00010B4B20010B0B000100123834079
:102AE000034A10681840431E9841C0B27047C04660
:102AF00000E100E0002904D0034B1860034B18608C
:102B00007047034B1860FBE780E200E000E100E063
:102B100080E100E010B5012383401800FFF7EAFFD1
:102B200010BD000001238340014A13607047C04676
:102B300000E200E0024B9B6810308000C0587047F4
:102B400000ED00E010B5FFF7F5FF002805D0054BBC
:102B5000C01A2F2803D8012010BD0020FCE7002058
:102B6000FAE7C0464004002070B504000D00EFF302
:102B7000108672B60C4B1B68002BFBD0BFF35F8F27
:102B80002000FFF7D7FF094B984201D0A84205D19A
:102B9000320029002000FFF749FF70BD044B054AB1
:102BA0007C21054801F0ACFC240100D0CD010010CF
:102BB00000B1001014B30010B0B00010F0B5DE4644
:102BC00057464E464546E0B589B08146019115000D
:102BD000EFF3108A72B6744B1B68002BFBD0BFF367
:102BE0005F8F724B0027DF57002F40DB7C00E4191A
:102BF000A4006F4824180622A2566C4B1A706D4B25
:102C00009A684B4610339B00D35898461E001B1AF7
:102C10002F2B38D9684B98452FD105AE674B3380A1
:102C20007B009B46D8198000614B98464044023097
:102C30006349FFF70FFF7080624BB380FF23B371CE
:102C4000F571019B07935F44BF0047440ECE0EC74A
:102C500001231C43A046524641464846FFF7E6FE84
:102C600009B0F0BCBB46B246A946A046F0BD564BE3
:102C7000564ACD21564801F043FC564B534AD421C5
:102C8000534801F03DFCC04340440C2103F014F8CC
:102C9000002912D101239E43B34633000026DA797E
:102CA000AA4211D90621595600290CDB4A005218B4
:102CB00092001E003E4B9B18F1E7474B434AE02130
:102CC000434801F01DFC1E00002E3BD005AB434ADB
:102CD0001A80813A5A800623F3560293002B18DAA1
:102CE000BD20000205AB9B469880029A9A71DD7167
:102CF000019A0792301D2100FFF7ACFEB080B7713A
:102D00007B00DB199B002A4FFF185B4607CB07C7E8
:102D1000A1E77800C0198000254BC0180430321D8F
:102D2000B388D90A1C2907D15B055915023149001E
:102D30005118FFF78FFED5E7294B2A4AA7212448CF
:102D400001F0DEFB05AE1D4B33807B000293D819EA
:102D50008000174A9046020042440392901C184992
:102D6000FFF778FE7080039A101D5946FFF772FE38
:102D7000B0801D4B5A464146521A524153431B0DD7
:102D8000B371F571019A0792029B9C466744BF009C
:102D900047440ECE0EC7114B5A461380813B5380D9
:102DA00001231C43A04656E7240100D04D210020FA
:102DB0004004002000ED00E0CD01001000A1FFFF65
:102DC0007004002000BDFFFF38B10010FCB20010FD
:102DD000B0B0001060B1001088B1001001480000D0
:102DE000FCB10010ECB20010AAAA0000F0B5CE466B
:102DF000474680B583B006000D00EFF3108872B629
:102E0000564B1B68002BFBD0BFF35F8F544B9A6867
:102E100034001034A300D758524B9F4207D0AF4222
:102E200000D199E00197504BFB1A2F2B09D942464C
:102E300039003000FFF7FAFD03B0C0BCB946B04618
:102E4000F0BD3000FFF74AFE814600213000FFF759
:102E500061FEBFF35F8FFDF706FA002801D08442C0
:102E600011D10123019C9C430022A368AB4212D0E4
:102E70000622A256002A0DDB53009B189B0022005D
:102E8000394CE418F1E72C21384B394AFF313948E5
:102E900001F036FB2200AB4257D106256557002DC5
:102EA00039DB6B005B199A002F4B9B189A68A26064
:102EB000DA79E27106229A56A2719B795BB2002BF5
:102EC00010DABD200002A0806B005B199B00264A2F
:102ED000D318294A11789971157049463000FFF7C7
:102EE00019FEA4E7201D6B005B199B001E4A9B186E
:102EF0001A1D9B88D90A1C2907D15B055B15023373
:102F000059005118FFF7A6FDDDE71C4B1C4AA7210D
:102F1000184801F0F5FA002812D1002A0ED0FF233C
:102F20009371184B9380144A1378A371164B0E4972
:102F3000641A644163431B0D1370CEE7094FF2E737
:102F4000201D1249FFF7AAFDC7E76021104B084A70
:102F5000FF31084801F0D4FA024F68E7240100D09D
:102F600000ED00E0CD0100104004002014B200107C
:102F7000CCB20010B0B000104D210020FCB1001008
:102F8000ECB2001000BDFFFFAAAA00007A040020E6
:102F900038B2001070B50400012606432D4BF31A19
:102FA0002F2B28D8FDF75FF900282BD0EFF3108CDA
:102FB00072B6294B1B68002BFBD0BFF35F8F274DE8
:102FC00022002449521A524155432D0D6DB2244B13
:102FD0009B6880001B58B3421BD00022032A32D8C2
:102FE00053009B189B001B49CB189B795BB2AB42EB
:102FF0001FD00132F2E7C2211A4B1B4A49001B487D
:1030000001F07EFA88211A4B174AFF31174801F068
:1030100077FA134B9B68174A1A50174B1A78A2710C
:103020001D70BFF35F8F0C4B00221A608CF3108869
:1030300070BD08005300991889004118FF268E7151
:103040000E4A8A80E9E7CC210D4B074A4900074820
:1030500001F056FA40040020240100D0AAAA000082
:1030600000ED00E040B2001098B20010B0B00010C7
:1030700068B20010CD0100104D21002000BDFFFFFF
:1030800074B200100022044B02E0044902C3013272
:10309000072AFAD97047C04600E400E080808080AB
:1030A00000B583B00100D0231B061B680648C0187A
:1030B000064B009305230022FFF757FC002801DB95
:1030C0001F23181A03B000BDC82000207CB20010D6
:1030D000024B9C4661448900016070474000003407
:1030E00010B50C00CB68834207D108000B699847E4
:1030F000002809D02068616810BD9621054B064A5A
:103100004900064801F0FCF90023E360002000219B
:10311000F2E7C04630B3001090B5001044B3001081
:1031200070B505000C00080000F01AFE200000F049
:10313000FFFE0849200000F03FFEFFF759FC064B58
:103140009C466044800068602C75A400034BE550E9
:1031500070BDC0466534001040000034381E0020A9
:103160000A4B1A68EFF3108172B61368002BFCD07B
:10317000BFF35F8F054B1B68BFF35F8F00221A60A0
:1031800081F3108840BF0020002170476420002098
:1031900010B5002922D003681B7B99421ED8174B1B
:1031A0009C466144090183689C4661440C684968F7
:1031B000002A19D003681B7B9A4215D883680F48F0
:1031C0008446624412019A18106853680200012074
:1031D0008B4201D80ED00020C0B210BD084B094A66
:1031E0003B21094801F08CF9054B064A3B21064872
:1031F00001F086F9A242EFD8EDE7C046FFFFFF0FCE
:103200007CB30010F8B5001044B3001010B50029CD
:103210001ED0037B99421BD84B005B18033B04680C
:10322000A4466344002919D0002A1DD0914221D020
:10323000002A25D0047BA24222D8046850008018BE
:10324000033820188170197800291FD11A7010BD19
:10325000104B114A6821114801F052F9104B114AE4
:103260006F310E4801F04CF90F4B0E4A70210B489C
:1032700001F046F90D4B0B4A7121084801F040F965
:10328000044B054A6821054801F03AF941701A706B
:10329000DDE7C046B0B3001064B60010CCB3001038
:1032A00018B4001040B6001024B4001030B4001060
:1032B00070B506000D001400002914D0002A14D0A7
:1032C000806873689847002806D0220029003000E3
:1032D000FFF79CFF280007E02A0021003000FFF7DD
:1032E00095FF200000E0100070BD0800FCE7000022
:1032F000F0B583B00500009201930AAB1C780BABCC
:103300001F78002C26D003685A7B944207D10123F2
:10331000002B19D1002C3BD1200003B0F0BD002CB4
:103320000CD01A7B944209D81A6863001B19033B1E
:10333000D3189B78002BEBD00123E9E73E4B3F4AA3
:1033400068213F4801F0DCF83E4B3F4A65213F4889
:1033500001F0D6F803689C7B002CDBD012D01A7BDE
:1033600094420FD862001219033A19688C466244DD
:1033700051789973002900D1D97300239370537049
:103380001370C7E72C4B2D4A68212D4801F0B8F87F
:10339000002C3AD02B681B7B9C4236D82C4BE31870
:1033A0001B01AA6894466344009A1A60019A5A6005
:1033B000089A9A60099ADA602E68002C2BD030D0D7
:1033C000337B9C422DD863001B19033B3268944623
:1033D000634400229A705A701A70717B2200300088
:1033E000FFF766FF7073844200D095E7287D009A4E
:1033F000019B00F029FD061E01D0002F17D00C9B69
:10340000002B00D188E71E7086E7124B124A3B2141
:103410000E4801F075F8114B114AA521084801F03A
:103420006FF8054B054A6821054801F069F82868DE
:10343000210000F031FFE2E7B0B3001064B60010E5
:10344000CCB3001048B4001070B6001044B30010A4
:10345000FFFFFF0F7CB30010F8B5001040B3001061
:1034600054B60010F0B5DE4657464E464546E0B528
:103470008BB00990002308938200B24BD6583700D6
:1034800032E0B14BB14A3F21B14801F039F8B14BBC
:10349000B14A3B21B14801F033F8B14BB14A8C211C
:1034A000AE4801F02DF8B04BAE4A9021AB4801F088
:1034B00027F8A84BAD4A4021A84801F021F82A6816
:1034C0006B68099800F0C0FC00239A4698467B6818
:1034D000BFF35F8F00221A6086F310884346002BEB
:1034E00051D1002800D126E100F046FC02000B1E5D
:1034F000C7DB00200021069007917868EFF3108663
:1035000072B601680029FCD0BFF35F8F3968884626
:103510004C7B002C32D0BAD0097B8C42B7D894496E
:1035200065182D01B9688C46654428686968801A59
:1035300099410029C3DC01D10028C0D100214046B7
:1035400000F0A0FEA042A8D12A686B6806920793FB
:10355000AB689846EB689A464346002BA3D0002CF4
:10356000A7D03B681B7B9C42A3D8631EFA68D35C40
:1035700008931B02184338610020A8E700239A46ED
:1035800098460020A3E7089B1B0223439946514617
:103590001800C04705000E007A68EFF3108B72B672
:1035A000136859424B41D9B2002BF9D1BFF35F8F59
:1035B000002E26DB002E52DD3B69002B53D04B45FD
:1035C00072D100F0D9FB02000B1E73DB0100180062
:1035D00052197341984202D804D1914202D9012272
:1035E0005242D317002B6BDB002104910131039170
:1035F000029451460191414600913800FFF778FE50
:1036000049E03B69002BD5D04B451CD1069A079B5E
:1036100010001900521BB341994202D804D19042C4
:1036200002D901225242D317002B12DB0021049150
:1036300001310391029451460191414600913800B5
:10364000FFF756FE27E04B4B464A9F21434800F0C8
:1036500057FF3D4B3D4A3F213D4800F051FF002EB2
:1036600001D1002DA8D13A68002C45D0537B9C4253
:103670002CD1012100293FD1D37B002B42D1D4731F
:10368000002C52D03B681B7B9C424ED8FA68013C10
:10369000135D0133135500233B617A68BFF35F8FDD
:1036A00013608BF310881FE7324B2E4AA2212B4860
:1036B00000F026FF244B254A3F21254800F020FF3B
:1036C000214B224A3F21224800F01AFF002C0DD046
:1036D000137B9C420AD863001B19033B1068844685
:1036E00063449B78002BC5D00121C3E7224B234ABA
:1036F0006821234800F004FF224B234AF62120488A
:1037000000F0FEFE002B0AD0117B8B4207D8590037
:10371000CB18033B11688C4663445C70AFE7164BD3
:10372000164A6821164800F0EBFE0A4B0F4A40216A
:103730000A4800F0E5FE0BB0F0BCBB46B246A94615
:10374000A046F0BD381E002018AB0010C4B5001014
:1037500034AB00107CB30010F8B5001044B3001077
:1037600070B40010DCB5001088B400101CB6001056
:10377000FFFFFF0F94B40010B0B3001064B6001048
:10378000CCB30010D0B4001030B6001010B50A4B06
:103790005B68002B04D00A210848FFF799FC10BD94
:1037A000054C2300064A1021206800F08BFC032101
:1037B0002000FFF7B5FCEEE788040020642000201D
:1037C0009131001010B5064B5B68002B01D0044806
:1037D00010BD044B044A5C21044800F091FEC04631
:1037E00088040020F4B4001004B6001044B30010A4
:1037F000F0B5DE4657464E464546E0B58BB08046AE
:1038000016001F00149B9A46159B994616AB1B7811
:103810009B461F2302AA9446634400221A7032E09A
:10382000002809D042461268127B904204D8421EFA
:103830004146C9688A5C48E0434B444A40214448B9
:1038400000F05EFE0798002B75D05B46002B72D00F
:103850004946D04704000D0003000B4300D171E03E
:10386000002946DB00F088FA06000F1E55DB3619EA
:103870006F41B94202D804D1B04202D90126764242
:10388000F717002F4FDB43465A68EFF3108472B6E8
:10389000136859424B41D9B20791002BF8D1BFF3BD
:1038A0005F8F1F3302AA944663440493002303935B
:1038B00002934B4601935346009332003B0040462F
:1038C000FFF716FD031EABD1020041464968BFF366
:1038D0005F8F00250D6084F31088002B29D01F23F3
:1038E00002A98C4663441B78002BABD11202104313
:1038F000A9E732003B00361BAF41BB4202D804D1DE
:10390000B24202D901267642F717002FBBDA114BDB
:10391000114A3F21114800F0F3FD0E4B0E4A3F21A2
:103920000E4800F0EDFD0B4B0B4A3F210B4800F019
:10393000E7FD012040420BB0F0BCBB46B246A946B1
:10394000A046F0BD0798F6E77CB300101CB6001047
:1039500044B3001018AB0010C4B5001034AB001015
:10396000F8B504004268EFF3108572B61368584248
:103970004341D8B2002BF9D1BFF35F8FCBB222689D
:10398000567BB3421BD10120002848D020698842D1
:103990002BD0090AC9B2002B2ED02068007B8342AD
:1039A0002AD8581EE668305C88422BD00020636815
:1039B000BFF35F8F00221A6085F31088F8BD002BDB
:1039C0000DD0167BB3420AD85E00F618033E176886
:1039D000BC466644B678002ED6D00120D4E7134BFF
:1039E000134A6821134800F08BFD8521124B134ABE
:1039F0004900134800F084FD124B134A402110483F
:103A000000F07EFD1900100000F046FC0028CED129
:103A100012210E4B094AFF31094800F071FD23695C
:103A20008B42C4D100232361C1E7C046B0B300106C
:103A300064B60010CCB3001018B50010ACB500107F
:103A400044B300107CB300101CB600103CB500104D
:103A5000F0B585B00700100019000C9E13000B4351
:103A600001D101200021B7600A9B33613060716091
:103A70000B9B7361CA1713005040040051400D00A6
:103A8000A41A9D4100F078F902000B1E1ADB010018
:103A9000180012196B41984202D804D1914202D900
:103AA00001225242D317002B12DB01210291019611
:103AB0000A4900913800FFF79BFEF060C043C00F39
:103AC00005B0F0BD064B074A3F21074800F018FD3E
:103AD000034B044A3F21044800F012FDE13000107E
:103AE00018AB0010C4B5001034AB0010F0B587B0AF
:103AF00006000F00FCF7B7FB00281FD10624644224
:103B0000E517A4197D41BD4202D803D1B44201D9C1
:103B100000240025002D14DB0494059500F02CF9F9
:103B200002000B1E13DBA41A9D41002D17DC14D0DC
:103B30003000390000F02CF907B0F0BD234800F048
:103B400079FD234B234A3F21234800F0D9FC204B29
:103B5000204A3F21204800F0D3FC002CE8D0FFF79A
:103B600031FE0023029301931C4B0093049A059BA2
:103B7000FFF73EFE002818DADAE7002300E0002312
:103B8000002BD5D1164B1A68EFF3108172B613686B
:103B9000002BFCD0BFF35F8F114B1B68BFF35F8F0F
:103BA00000221A6081F3108820BF0499059A0D4BFA
:103BB0005B6A9A42E3D80B48806A884203D29A42F1
:103BC000DBD00123DCE70123DAE7C04640B5001073
:103BD00018AB0010C4B5001034AB001061310010F8
:103BE0006420002000400540F8B504000D0000F0FE
:103BF000C3F802000B1E10DB200029008018594179
:103C00008B4202D804D1824202D901204042C1171E
:103C1000002908DBFFF76AFFF8BD064B064A3F2183
:103C2000064800F06DFC034B034A3F21034800F0B7
:103C300067FCC04618AB0010C4B5001034AB0010D0
:103C400010B5FA2292000023002103F0ADFAFFF72D
:103C5000CBFF10BD70B584B006000C00FFF7B2FDBD
:103C6000002302930193194B009332002300FFF7C6
:103C7000BFFD051E11DD20BFFFF7A4FD2900FFF7E2
:103C80006FFE134B5B6A9C421BD8114A926AB24288
:103C90001AD29C4213D0012014E00D4B5B6A9C4267
:103CA00009D80B4A926AB24207D29C4201D0012045
:103CB00008E0002006E0002004E0012002E00020EF
:103CC00000E0002004B070BD0120FBE7613100106E
:103CD0000040054070B5EFF305833F2018401038D1
:103CE000EFF3108C72B6194B1B68002BFBD0BFF39F
:103CF0005F8F012319008140154A5163154A1278DC
:103D00001400C440234214D0114B5C6A8300124D4E
:103D10005B599C4206D38300104C1B598A430D49C2
:103D20000A7007E00A4A031D9B0099589950002326
:103D300000E00023BFF35F8F044A002111608CF381
:103D40001088002B00D0984770BDC046280100D0D5
:103D5000004005405121002098200020D40A002076
:103D600010B50100024A0348FEF7E6FD10BDC0464B
:103D700088B600104A210020044B5B6A034A906A0F
:103D80001900536A9942F9D17047C0460040054076
:103D9000084B5B6A01E0074B5B6A8B42FBD301E097
:103DA000044B5B6A8B4203D1024B9B6A8342F7D37D
:103DB0007047C0460040054070B504000D00EFF3A9
:103DC000108672B61B4B1B68002BFBD0BFF35F8FB6
:103DD000002D1CD02000FEF7ADFE174B83420BD008
:103DE00019002000FEF7C0FE01212000FEF792FE20
:103DF0000123A340114A1360A400114BE550BFF307
:103E00005F8F0C4B00221A6086F3108870BDA200F1
:103E10000B4B0021D1500122A2400A490B78934359
:103E20000B7005492000FEF7E1FF00212000FEF79E
:103E300071FEE4E7280100D0D53C00103860054051
:103E4000D40A002051210020F0B5DE4600B584B030
:103E50000400150001921E000293FFF78DFF0395E9
:103E60008E4202D84ED185424CD9EFF3108B72B6F8
:103E7000274B1B68002BFBD0BFF35F8F254A1778B9
:103E80000125A540EBB23B431370234B5D63221D1C
:103E900092000199D150A2002049029850501B6A0B
:103EA0002B4212D11C4B1B6C2B4208D00020BFF3BD
:103EB0005F8F174B00221A608BF3108823E0184B9A
:103EC000184AC121184800F01BFBFFF755FF8E422E
:103ED00014D802D1039B834210D80E4B1B78BB42EF
:103EE0000ED00D4B1D625D631F2004400123A340D3
:103EF0000E4A1360074B1F701E38D8E70020D6E724
:103F00000120D4E7012004B080BCBB46F0BDC04610
:103F1000280100D0512100200040054098200020B9
:103F2000ACB6001014B70010D0B6001080E200E06C
:103F3000EFF3108C72B60B4B1B68002BFBD0BFF35A
:103F40005F8F01238340084A136208490A789A4325
:103F50000A70BFF35F8F034B00221A608CF3108846
:103F60007047C046280100D0004005405121002084
:103F700010B500291ED0037B99421BD84B005B185B
:103F8000033B0468A4466344002919D0002A1DD0CD
:103F9000914221D0002A25D0047BA24222D8046875
:103FA00050008018033820188170197800291FD11B
:103FB0001A7010BD104B114A6821114800F0A0FA88
:103FC000104B114A6F310E4800F09AFA0F4B0E4A0F
:103FD00070210B4800F094FA0D4B0B4A71210848F0
:103FE00000F08EFA044B054A6821054800F088FA73
:103FF00041701A70DDE7C046B0B300101CB8001065
:10400000CCB3001018B4001008B8001024B400108D
:1040100030B4001070B506000D001400002914D053
:10402000002A14D0806873689847002806D02200C0
:1040300029003000FFF79CFF280007E02A0021003C
:104040003000FFF795FF200000E0100070BD080071
:10405000FCE7000010B50023437301338373037B37
:10406000C3730123027B9A4214D9002B0CD0027B2C
:10407000934209D85A00D218033A01688C46624428
:104080000133DBB25370EDE70B4B0C4A68210C484F
:1040900000F036FA002A09D0924207D8016853008E
:1040A0009A18033A8A180023537010BD024B034A32
:1040B0006821034800F024FAB0B300101CB80010C7
:1040C000CCB3001010B5017342608360FFF7C2FFEC
:1040D00010BD000070B50400081E00D170BD00299D
:1040E00034D0237B994231D84B005B18033B2268C4
:1040F000944663445A78002AF0D02DD0237B9A420C
:104100002AD853009B18033B21688C4663445D7892
:1041100000215970002825D0237B984222D84300E3
:104120001B18033B21688C46634400215970010031
:104130002000FFF76FFF060029002000FFF7CAFFED
:10414000020031002000FFF765FFC7E7084B094A6E
:104150006821094800F0D4F9054B064A6821064851
:1041600000F0CEF9024B034A6821034800F0C8F979
:10417000B0B300101CB80010CCB3001070B505002F
:104180000C001600002928D02DD0037B99422AD894
:104190004B005B18033B0268944663445A78002A3C
:1041A00027D19A78002A2AD11978FFF793FF0300C4
:1041B000002E03D0EA7B002A27D1EC73002B37D1E5
:1041C000002C49D02B7B9C4246D82B6861000C19EF
:1041D000033C1C190023637070BD224B224A382116
:1041E000224800F08DF9224B224A6821224800F033
:1041F00087F9224B1C4A3A211C4800F081F9204BD8
:10420000194A3B21194800F07BF9002A0AD0297B82
:104210008A4207D851008A18033A29688C466244BA
:104220005470CAE7124B134A6821134800F068F92A
:10423000002B0BD02A7B934208D843001B18033B6A
:104240002A689446634400229A70B9E7084B094AE9
:104250006821094800F054F9054B064A68210648D0
:1042600000F04EF930B70010F4B7001038B7001066
:10427000B0B300101CB80010CCB3001070B7001021
:1042800098B7001070B504000A00457B2900FFF7BD
:1042900075FF6073280070BD70B50400002967D0F9
:1042A000437B8B420ED0002911D0037B99420ED85C
:1042B0004B005B18033B0268D0188378002B0CD1AD
:1042C000002056E00121FFF7DDFF012051E0294BDE
:1042D000294A6821294800F013F9002B20D0227BBD
:1042E00093421DD85A00D318033B2268D218256880
:1042F000EB5C8B421AD0002B1BD0227B934218D848
:104300005A00D318033B2268D21853788B4216D038
:10431000002BF0D11A4B1B4A67211B4800F0F0F824
:10432000144B154A6821154800F0EAF843781370D9
:1043300007E0104B104A6821104800F0E1F843787C
:10434000537000238370437001222000FFF716FF93
:104350000200617B814205D02000FFF75BFE6073A5
:10436000012006E0094B074A6D21074800F0C8F814
:10437000002070BDB0B300101CB80010CCB300100A
:1043800074B20010DCB7001038B70010BCB70010D2
:1043900010B50400FEF72CFB01002000FEF798FE8C
:1043A000FF232371BFF35F8F10BD10B50400FEF72C
:1043B0001FFB01002000FEF78BFEFF23237100236B
:1043C0006371BFF35F8F10BD034B9C46614489004E
:1043D0000160BFF35F8F70474000003410B50400E8
:1043E0000120FEF713FB01002000FFF7EDFF10BDD9
:1043F00070B504000D00062000F036FAC000290058
:1044000001F05AFCC60908D00E4B9E4217D87F23F4
:10441000184001303500460800E001256562A662BB
:104420002C3480208001044300232360062000F008
:104430001BFA8000A901891901F03EFC70BD00261D
:10444000014DEBE7FEFF0000FFFF0000002909D04F
:104450000A22064B9C466044434258414000044BAC
:10446000C252704780225200F3E7C0460080FCBF72
:10447000AC20002070B505000C00062000F0F4F917
:10448000002829D0164B9D4227D08022D203154BFD
:104490001A60154B1A60154B9B6811009943FAD1AD
:1044A00000212800FFF7D2FF21002800FFF7A0FF1E
:1044B0002C002C34E96A60224A406E21114080228F
:1044C0005201224311600A4B2B6380239B0123433B
:1044D00010221A600323AB6470BD80221204D6E759
:1044E0000080034000E0004000F0004000C00040B9
:1044F0000103000000BEFDE710B5FFF7FBFF000061
:1045000010B582B00C001900002A0CD0084B002A0C
:104510000BD00192009323000200064803F068F9D3
:104520000120FFF7E7FF044BF1E7034AF1E7C0463C
:10453000F0B8001000B9001088AB001070B52B4B1C
:104540002B4A1A602B4B2C4A1A602C4B9A682A4B28
:104550009343FAD12A4C01E008CC9847294B9C425E
:10456000FAD300F001F9234B274A1A60234B9B68CA
:10457000DB43DB01FAD1254B40229A675A671A6761
:10458000DA66234C09E0234B234A83212348FFF7B3
:10459000B7FF2000FFF7FCFE0834214B9C4209D2F4
:1045A0002368002BF5D0012BEDD12000FFF7FDFE95
:1045B0000834F2E71B4CA1681B4DC022280002F012
:1045C000D3FFA560FBF74FFE002800D000BEFEF72A
:1045D000FFF9FEF757FDFFF7D9F8144C01E008CCBE
:1045E0009847134B9C42FAD370BDC04600E0004090
:1045F000BFCDFBFE00F00040FE7F3C0000C000404D
:104600003C0500204C050020FFFFFF0100F00140A9
:104610003405002030B90010A4B9001050B90010C2
:104620003C05002000ED00E0000000204C050020CB
:10463000540500200FB400B583B0084803F0A6F875
:10464000049B002B07D005A90191180003F0AEF8D8
:10465000034803F09BF80120FFF74CFF94B90010CA
:10466000B4AB0010F8B5DE4657464E464546E0B5B9
:1046700005000F0092460A9A93424ED31A0E9146B5
:104680001E020A9A00233000494601F057FB80467B
:104690006C006419A4002F4B9C46644463688342F9
:1046A00000D260602B1FDBB29B46012B3BD9C0239D
:1046B0009B012343802212011A60AB00264A9958BD
:1046C000002905D0506901F0F7FA01300138FDD119
:1046D00053465A0123685A40E0231A4080235B0165
:1046E00023431A605A46012A28D980239B01234379
:1046F000802212011A604346636042460023300064
:10470000494601F01BFBAD00134B58510120F0BC92
:10471000BB46B246A946A046F8BD104B104A2D2113
:104720001048FFF7EDFE012FC1D1C0239B012343A9
:1047300003221A60A368DB07FCD5C9E7216879402A
:1047400003220A401A60A2680123BB401342FAD038
:10475000CBE7C04600800040740C0020B4B90010C4
:104760000CBA0010C8B9001030B583B00C2000F0AE
:1047700021F9FEF723F900280DD0002304E0990069
:104780002D4A2E4888500133092BF8D92A4B2C4A40
:104790005A6203B030BD2B4B00229A6700F07CF9BF
:1047A000294B01221A60274B5B6C012BFBD1274B55
:1047B00003221A60234B9B6B012BFBD10133009327
:1047C0000433234A0121234800F054F805230093C1
:1047D000214A0121214800F04DF8214B009300228D
:1047E00002210420FFF73EFF1E4D00952B00002202
:1047F00001210520FFF736FF104C00942300002212
:1048000000210720FFF72EFF009423000022002143
:104810000820FFF727FF0A4B009323000022002106
:104820000920FFF71FFF00952B0000220021062022
:10483000FFF718FFADE7C046740C0020006CDC02E7
:104840001BB70000008000403CB0004030B000408A
:10485000002F685900800240008C864700C002404B
:10486000001BB700405973078000014BC0587047C8
:10487000740C0020F0B5C64600B504000F00904649
:104880001D000C2001F018FA06003D4A42443D4B41
:104890009A4243D843011B1A9901C91AC900091841
:1048A0008901404601F008FA0200103A98235B00A3
:1048B0009A4239D86B1E062B3CD8069B013B062B2F
:1048C00038D8069B9D423BD343461A09B2423DD39A
:1048D0002D04069B1E0335432368002B3CDB2A4B2B
:1048E0009C424AD080225201284B1A60284B1A6001
:1048F000284B9B6811009943FAD12760A060231DC3
:10490000C02292011A43212313602368002BFCDA92
:10491000E5600823136080BCB846F0BD1E4B1F4AFB
:1049200011211F48FFF7ECFD1E4B1C4A19211C48A2
:10493000FFF7E6FD1C4B194A1C211948FFF7E0FD63
:104940001A4B164A22211648FFF7DAFD184B134A74
:1049500025211348FFF7D4FD22683F231340BB42B3
:10496000BDD1A3681B051B0D8342B8D1E368EE22BD
:10497000D2021340AB42B2D1CDE780229201B3E71D
:1049800080E84BD380F8A93200C0024000E000402C
:1049900000F0004000C000401CBA001058BB0010DE
:1049A0007CBA0010BCBA0010D8BA001024BB0010AA
:1049B0003CBB001080239B000343014AD362704735
:1049C00000800540024B1A68024B5A607047C0468F
:1049D000F41A00200080054010B50200164B80201C
:1049E000C0051860154B1648186000290AD0154BF1
:1049F000E021C9041960002A09D1124B8022120655
:104A00001A6010BD0C4BE021C9041960F3E7530193
:104A10009B1A9800801800010B4B186080235B04E0
:104A2000984202D3084B094A1A60FFF7CBFF054BA7
:104A30008022D2051A60E4E700B00540082001405A
:104A4000FCFF010000A00540F41A0020FFFFFF005A
:104A500010B5030010000C4A8024E4051460002BFC
:104A60000DD001221343094A094CD461094C5C4022
:104A70001462516293620021FFF7AEFF10BD034B39
:104A80000022DA61F7E7C04600B00540008005402B
:104A9000D3C007B02D3FF84F064BAA2212011A606F
:104AA0002F22DA60044B054A1A60024B5B68002B28
:104AB000FBDA7047004002400060024000B0FA009C
:104AC000704710B5002802D00B684968984710BDA0
:104AD0000100002007E083001B185B00501C0860E9
:104AE0001078C01830380A681378303BDBB2092BD5
:104AF000F1D97047F0B5DE4657464E464546E0B51B
:104B000083B093461F000C9B9A460D9C0E9B9946C2
:104B10000F9B9B0703D0B8460F00060022E00192CE
:104B2000A34688464E46B9460700B44207D2551CF4
:104B30004B4641462020B84701342A00F5E73D00A6
:104B40004F465C46019B9B46B1464646B8463700F9
:104B50002E0007E0013C551C5346185D43463900C2
:104B6000B0472A00002CF5D135003E0047460F9B88
:104B70009B0707D4100003B0F0BCBB46B246A94661
:104B8000A046F0BDB0464E46B9462F005D46531BC9
:104B9000B342EFD2541C4B4641462020B847220076
:104BA000F5E7F0B5CE46474680B585B094469846C1
:104BB0000C9D0D9C0EAB1B789946109A119B129E72
:104BC000B7071CD4002B0CD0F7070AD54F46002F8F
:104BD00002D10C37374204D0013B02E030272F5579
:104BE0000134944201D21F2CF8D9F70707D59C4213
:104BF00005D21F2C03D830272F550134F5E7F706CF
:104C000015D5770505D4002C03D0944224D09C42BE
:104C100022D00F9A102A2BD00F9A102A30D00F9A38
:104C2000022A35D01F2C02D830222A5501341F2CDD
:104C300005D84A46002A31D02D222A550134039640
:104C400002930194009543466246FFF753FF05B077
:104C5000C0BCB946B046F0BD621E012C06D00F9F05
:104C6000102F01D01400D4E7023CD2E71400D0E7A3
:104C7000B206D1D41F2CCFD878222A550134D1E7DF
:104C8000B206CCD51F2CCAD858222A550134C9E700
:104C90001F2CC7D860322A550134C3E7720703D5E9
:104CA0002B222A550134CAE73207C8D520222A55BB
:104CB0000134C4E7F0B5DE4657464E464546E0B5FA
:104CC00093B081468A46089209931CAB10CB1B789F
:104CD0009B461E9D219B9846002C03D110234246E3
:104CE0009A4390468023DB0046461E4042461A42C5
:104CF00012D0002C22D000260EE03033D9B2771C1F
:104D00000AAB99552900200000F0D6FFAC4216D31B
:104D10001F2F14D83E0004002900200000F0CCFF13
:104D2000CBB2092BE9D94246920605D54121C918D3
:104D3000C9B20A39C9B2E2E76121F8E72700434660
:104D40000693209B05931F9B049303955B46029358
:104D500001970AAB0093099B089A51464846FFF712
:104D600020FF13B0F0BCBB46B246A946A046F0BD3A
:104D7000F0B5DE4657464E464546E0B595B008903C
:104D800009910A920B931E9E1F9C20AB1B789B4699
:104D9000229B9946239D269B9A463300234303D1A9
:104DA000103352469A4392468023DB0057461F40F9
:104DB00052461A4219D0330023432DD0002714E065
:104DC0003033DAB27B1C98460CABDA554A462B00DE
:104DD0003000210000F0B2FFA5421FD819D0434691
:104DE0001F2B1BD8474606000C004A462B003000FC
:104DF000210000F0A3FFD3B2092BE1D9524692065D
:104E000005D54122D218D2B20A3AD2B2DAE76122EB
:104E1000F8E7B145E3D901E00023984653460693ED
:104E2000259B0593249B04934B4603935B46029377
:104E3000434601930CAB00930B9B0A9A099908987F
:104E4000FFF7AFFE15B0F0BCBB46B246A946A04680
:104E5000F0BD0000F0B5DE4657464E464546E0B58B
:104E600091B083468A460C9298461A9C08941B9DE2
:104E7000099522002B002000290001F0FAF90028F2
:104E800000D0E5E001225242D74B2000290001F07A
:104E9000EBF9002800D0DBE001225242D34B200086
:104EA000290001F0CBF9002800D0D1E00022002336
:104EB000089E3000099D290001F0C0F9002800D0AB
:104EC000DDE008980999069007918023DB001E9A7F
:104ED0001A400D921E9A1A4201D106231C9306987D
:104EE000079904000D000A000600024300D1D1E03A
:104EF000080D4005400DBE4CA44660440A03120B49
:104F0000BC4B13431F0001F0C7F9BB4ABB4B01F078
:104F100052F9BB4ABB4B01F027F904000D000022F7
:104F2000B94B3000390001F016F9B84AB84B01F01E
:104F300042F902000B002000290001F015F901F0F0
:104F4000C3F9814601F0A8F904000D00B14AB24B43
:104F500001F031F90022B14B01F006F901F0B4F98A
:104F60000600AF4AAF4B2000290001F024F90400ED
:104F70000D00300001F090F9AB4AAC4B01F01BF989
:104F800002000B002000290001F0E5F804000D00EC
:104F900002000B0001F00FF90A900B91A44BF318DB
:104FA00000261F0522002B002000290001F0DCF85C
:104FB0000E900F9122002B0000208021C90501F0E6
:104FC000CAF804000D0000229A4B0A980B9901F0D0
:104FD000D4F80022984B01F0C7F802000B000A98A1
:104FE0000B9901F0CAF80022944B01F0BDF80200C1
:104FF0000B000A980B9901F0C0F802000B0020008A
:10500000290001F0B1F802000B000E980F9901F091
:10501000B4F80022774B01F0A7F832003B0001F012
:10502000CAF806000F0004000D00069A079B01F065
:105030001BF9002830D001235B429C46E14400224A
:105040007D4B3000390001F098F804000D0023E09A
:105050001E9B04931D9B03931C9B0293089A099B20
:105060000092019343460C9A5146584600F0FCF8D2
:1050700011B0F0BCBB46B246A946A046F0BD002325
:10508000002406930794069680231B069C466544DD
:1050900007951AE7002399464B466333C62B1ED863
:1050A00004261E9B1B0526D52B0023430FD0644AE4
:1050B000644B0698079901F0CFF8002879D00022B8
:1050C000614B0698079901F0B9F8002871D01C9B34
:1050D0004B4506DD4A46981A431E1C9303E00526FD
:1050E000DFE700231C938023DB001E9A1A431E92E5
:1050F0000026002399461D9B9E4264D29F1B0223DB
:105100001E9A1A400A921E9A134202D0002E00D014
:1051100000274B46002B07D022002B00069807994A
:1051200001F02BF8069007910022002308980999B6
:1051300001F084F8002848D1444B1E9A1340049390
:1051400003971C9B0293069B079C00930194434684
:105150000C9A5146584600F087F8002E00D187E798
:105160001E9B9B063DD54525441C434602005146E7
:105170002800D8474B46DA179B1853400522059262
:10518000013E0496002203920A3202924A46D00F50
:10519000019000934346220051465846FFF78AFD8E
:1051A0000A9B002B00D163E702005F460C9E1D9D09
:1051B00054E01C9B002B9ED00D9B002B9BD01C9B76
:1051C000013B1C9397E7002799E7069C079D220067
:1051D000290080200006844661440B000692079354
:1051E000AAE76525C0E7C046FFFFEF7FFFFFEFFF9F
:1051F00001FCFFFF0000F03FFB799F501344D33FB9
:10520000B3C8608B288AC63F0000F83F61436F63D4
:10521000A787D23F71A379094F930A400000E03F6E
:105220001655B5BBB16B0240EF39FAFE422EE63F90
:10523000FF03000000002C40000024400000184044
:105240002D431CEBE2361A3F80842E41FFF7FFFF0F
:10525000541C434651462020B8472200931BAB42C2
:10526000F6D3100004E7C046F0B5DE4657464E467A
:105270004546E0B595B00690079193469946209F24
:105280001E9A1F9B1000190000F0F3FF002831D177
:1052900001225242BF4B1E981F9900F0CFFF0028F9
:1052A00037D101225242BC4B1E981F9900F0DCFFFF
:1052B00000283DD10022B94B1E981F9900F0D4FF61
:1052C000002850D10022B64B1E981F9900F0B6FF5F
:1052D000002848D1002200231E981F9900F0AEFF3D
:1052E000002850D100239846229B5B0500D4B6E0ED
:1052F000002458E0229B0393219B029303230193F4
:10530000A84B00934B465A4607990698FFF7F2FBC5
:105310000EE1229B0393219B029304230193A24B52
:1053200000934B465A4607990698FFF7E3FBFFE0C8
:105330000423229A1A4022990B4210D09B4B002A38
:105340000FD0042222990391219902910192009396
:105350004B465A4607990698FFF7CCFBE8E0944B7A
:10536000EDE70322EEE7229B0493219B0393029730
:105370001E9B1F9C009301944B465A460799069822
:10538000FFF768FDD4E01E9A1F9B0020002100F06B
:10539000E2FE1E901F9101239846A5E70CAB302238
:1053A0001A55013F01341F2C01D8092FF6D81E9839
:1053B0001F9900F089FF050000F06EFF02000B004E
:1053C0001E981F9900F0C7FEFA007A4B9B181A68C6
:1053D0005B680A920B9300F0EEFE0890099100F0D2
:1053E00097FF060000F054FF02000B00089809998F
:1053F00000F0B1FE0890099100226F4B00F034FFDD
:1054000000282ED00136300000F042FF02000B00D1
:105410000A980B9900F018FF002801D001350026EA
:10542000002F2CD1280000F037FF02000B001E983F
:105430001F9900F090FE06000F0000225E4B00F066
:10544000FDFE002846D100225B4B3000390000F001
:105450000BFF00283ED1EB073CD501353AE006278B
:1054600046E70022544B0898099900F0E7FE00280F
:10547000D6D1002E01D0F307D2D50136D0E7AA4607
:105480001F2C11D8013F0A21300000F015FC651CCB
:1054900030310CAB19550A21300000F00DFC092EFB
:1054A0000ED906002C00EBE755461F2C0CD87B1EAE
:1054B000002F09D00CAA302111551F000134F4E748
:1054C0002B0055461C00F0E71F2C03D80CAB2E22F6
:1054D0001A5501341F2C10D80A21280000F0C4FBF3
:1054E000661C30310CAB19550A21280000F0BCFBBA
:1054F000051E01D03400EDE734000323229A134047
:10550000012B1CD01F2C06D84346002B32D00CABED
:105510002D221A550134229B0393219B029301945F
:105520000CAB00934B465A4607990698FFF7E2FAF0
:1055300015B0F0BCBB46B246A946A046F0BD219BC3
:10554000002B13D04346002B02D10C3313420FD053
:10555000219B013B2193190003E00CAB30221A552B
:1055600001348C42CED21F2CF7D9CBE72199F8E732
:105570002199F6E7229B5B0704D50CAB2B221A5529
:105580000134C8E7229B1B07C5D50CAB20221A5556
:105590000134C0E7FFFFEFFFFFFFEF7F65CDCD4197
:1055A00065CDCDC170BB001074BB001068BB00108E
:1055B00064BB001060BD00100000E03FF0B5DE46A7
:1055C00057464E464546E0B593B082468B469046D8
:1055D0001193002900D1EBE200275546119B187862
:1055E000002800D1E7E2252809D07C1C43463A0078
:1055F0005946A847119B013311932700EEE7013369
:1056000011930024119A11780B00203BD8B2102876
:1056100003D88300D048C3589F460B00303BDBB211
:10562000092B2CD92A292FD000230A93119B1A78F1
:105630002E2A39D000239A46119A1378683BD9B2A2
:10564000122976D88B00C549CB589F4601231C43AD
:1056500001321192D6E702231C4301321192D1E7A5
:1056600004231C4301321192CCE708231C4301326E
:105670001192C7E710231C4301321192C2E711A80F
:10568000FFF726FA0A90D1E71C9B1A1D1C92186896
:10569000002804DB0A90119B01331193C6E7022313
:1056A0001C4343420A93F6E78022D20014435A1C5B
:1056B00011925A781300303BDBB2092B04D92A2A05
:1056C00007D000239A46B7E711A8FFF701FA8246F0
:1056D000B2E71C9B1A1D1C921868002804DB824646
:1056E000119B01331193A7E70020F8E780235B00AB
:1056F0002343511C119152786C2A01D01C0018E0F0
:10570000C0239B001C430131119112E080232343ED
:10571000511C11915278682A01D01C0009E0C02365
:105720001C430131119104E080235B001C430132D2
:105730001192119B18780300253BDAB2532A00D945
:105740002CE29300864AD3589F4680239B001C433B
:1057500001321192EDE780235B001C43013211926C
:10576000E7E7782809D0582838D06F2838D0622841
:1057700038D010239C430A2600E01026582833D046
:10578000692803D0642801D00C229443630501D515
:105790000122944369282AD0642828D0A30500D583
:1057A0009FE0E30500D5B8E0630600D4CAE01C9A88
:1057B000111D1C911168FF220A4005940A9B049355
:1057C00053460393029600230193009243463A0006
:1057D00059462800FFF76EFA070027E01026CDE7AC
:1057E0000826CBE70226C9E720221443C8E7A30511
:1057F00020D4E30550D4630666D51C9A111D1C9174
:105800001168FF220A40D317D118594005940A9B0A
:105810000493534603930296D20F0192009143469C
:105820003A0059462800FFF745FA0700119B01335B
:105830001193D3E61C9BDA1D07218A43110008311E
:105840001C91116853689C46DB170C930D930C9ABE
:105850000D9B100048400E90624653400F930E98E7
:105860000F990C9A0D9B801A99410E900F910894F4
:105870000A9B0793534606930496002305936346B9
:10588000DA0F02920090019143463A0059462800EF
:10589000FFF76EFA0700C9E71C9A111D1C911268E8
:1058A000D317D118594005940A9B04935346039388
:1058B0000296D20F0192009143463A0059462800C1
:1058C000FFF7F8F90700B1E7230605D51C9A111D6B
:1058D0001C910023D25E96E71C9A111D1C91126840
:1058E00091E71C9BDA1D07218A43110008311C91A6
:1058F00008940A9B07935346069304960023059346
:105900000293136854680093019443463A00594641
:105910002800FFF72DFA070088E71C9A111D1C913B
:1059200005940A9B04935346039302960023019324
:105930001368009343463A0059462800FFF7BAF926
:10594000070073E723060DD51C9A111D1C911268E0
:105950001204120C31E7C0467CBB0010C0BB001023
:105960000CBC00101C9A111D1C91126825E74628DA
:105970001AD01C9B0733072293431A0008321C924B
:1059800004940A9A0392524602925C681B68009340
:10599000019443463A0059462800FFF765FC07008A
:1059A000119B0133119319E620231C43E1E767287B
:1059B00001D0472802D180231B011C43452801D078
:1059C000472801D120231C431C9B07330722934304
:1059D0001A0008321C9204940A9A039252460292C8
:1059E0005C681B680093019443463A0059462800BE
:1059F000FFF730FA0700119B01331193EEE5022304
:105A00001A002240924623421FD001241C9B1A1DDB
:105A10001C927A1C9146187843463A005946A8478A
:105A20005346002B16D1119B013311934F46D5E5F8
:105A3000561C434659462020B847230032005C1CC0
:105A40009D42F5D83D001700E0E701233A002F0002
:105A50000A9DF4E74A46A9460A9D06E0571C4346BC
:105A600059462020C84734003A00661CA542F5D8A4
:105A70004D469146D7E71C9B1A1D1C921B68994600
:105A80005346002B00D1013B4E4601E00136130086
:105A90003278002A02D05A1E002BF7D14B46F21A58
:105AA00010928023DB0026001E401C4203D052458A
:105AB00001D95346109302231A0022400B9223422D
:105AC00005D03A0037004C46A946554620E03A003A
:105AD000109B5F46B3462E0006E0551C4346390036
